{
    "hex" : "0100000001a6d1d3ca0c77cffdb0a92c8a8f7ab5716aad2f7847fbe090ebeb74f487a1b79d0100000000ffffffffa41a0000000000000202f22c3aa41428810409e534c6ca9c5d6399cdf33e74c29941c83ee8fd73df699bfd040a401f2b4e9e9aff1a2229c0ad99456f29c728ff92f305d53bc8c6f52692634c52b74b08e41c35c259c336238ed34064a4e3cdcee76a2fd5f4a343303e29e9c7a4f60ea0511e5277a3ddc66c470ea3962df040619d9aa88624fcc350a83d63755cbbde917ddc852e3c4d44f2ba0513da25053c49f08992bf21fa974edaca194bc9d701421e07e471054a1722580c3f46b8bd42418df98a1dcf2ec899e6a0f3e0cee387763b996394cd10af2af39270c3cacb99676b038af61679382f1451f7093c52e8dbae07683122ccdd2188c53824c1904493a5759574ffab58bdbeb5b43e65de1ac7e1271301199c066ab08480dee2dd185920e54c2c4bf129d9cd82344a10868e1536d94463857c77098265d878eabaa18f061c9e0fdf6df04a642d51f68028a2b0464b0eb464cff144ba37b74a1707dea9510ef224f02016daf42d2d14cda6e7f7b1ca4a85759fcd1c8d13afe1c1173c7a11710beaffcd3b8a01e39d688e29e9dbf737f6ca0c70259e2e04c20e11f5a19112b219a47245af1865c3234d1f912f1f42ae2a8d9075f4bb0afede7793b3b32aa1e55da24e1bff2852bd3c157d0965df2b5a7e140119ab6c532d916c28fe4fb347d570b560a7d208491135d33b3fcd2a230c4f226ba6a95083ab525e984effb99ec1cf0771bcc7e4f560fb9356d70d598904ad1a8e2b9a75740e5bc36479965bc6bca856c2a63826d7d503440ff6f3846ec0ee65fcc6b09108fe5c08fa88c1655a4b5e92cda88879e2dd4e81f4bdf3aa20c794958cb6b88db17538875cf846a076a55e75f80dc6b24157da0a601deab96609ed70cfdd1cc10b6f3f30b3d04b027b8f70dff072dc7bf925e9b6b7f736be39d0468042e4a08144187d2fe08f4d796fbea0e4a8950bfda9ce1ea321b74dd5a8c215eaf0f02a7481be4cc8c16826255875121a2cfc0dff42bdeedf7ebb064a0a69169ec7037202f65a7a77dc67e9739731acaab5544bd29269140613337c572a7b63b5e16e7bc2a369fefbf63e488058ca36ca44149cf60ac67585a4de889bf31023c8c790e5e6bc322060449e932690c443eeb062ef214a39be9ebb460b34c805f9502c8d158217621f0a20f7c6b51e8c428c8d564f8aba5be275bc21977338caba08b1f529a8e69e5e7fc2b2d84ff65f475ab42f4def98dc5774a11b8e395896cad2f2e14e1787ac12d4e019372894c0111f4ba4be993113341ff65ceaf7048387ba968ead231f4fcfeb791c15dd74f130838a02e3432b7ff896a65be87b1f08915b5a161437d46c7d89fe9f3c56578fa321abe926e2db18dbdd03e48e287c646de4a02a340471207831813fadc2e140a4dba979544db486405083d0affc9dff654557c75a4ed95e84af65a03693ed70fe48c9f991e716912d870d6db38ff66ba52319967f1db751d09694d029085db88c438cbb746d164d490c10b0e9ec8a63fcfddbe958b0588cf74a1588a7fd3b82a142b372e5152e9170ae6b82044c94a3054d47e9589e2f1907eee405cb99b1045e38c294830f977fb959878c537fff1f78d2d356f9952dc48793b4ed166edb7d3e26bf3bebe5068184ac8c94273ffb124892129a9b9ff1f46f027f594564b7edab008016336939e1bc6e20079f72c1a094e61fe9165903d9efb9c8af8832cfd9f28b662cc11aa76f7ce7274980ca04ec34f6b7505042f157c4c1889d24bb9b5529aea1401abcce4172bb084ed01cbbb51df08d3108d8a6d196d0560fa9277af6cb3020aa5fb93d575195e77999dc4fca9ce79048656b04dffbf603e79b067186a23778b3838f05038cdf9fe6a2a0ef7328b418b01880fcfc027a50fa5f87dec415ca6286a1146d9a217e0d58e36b1fa77e16dd557ec15dc9953df52a89cfa9f676f5b4d2513a8b6da44d53df4bc468005e3c4337d6c88c2effd95d31364dc344ff23ffb2579f59539dc1cd86787ff960af23f43fe8890e408b16abfee918a386ada67ce48edaf05ba4a965122cc0277dd804440ce49c1d9239fedd071552e030017b71bb3be54837731987bb7dc432e22f9f488d2ac1fca6f4ced81a94e3f92ec553496416caf5a45a50a7ff8b9863841e03a93e7797db98ee15450126288fdb7b16d9ec7e6d741341db5a7fbf78b3fa22b7c86302b4d8edc272f72880d369e9e8c6558294d092fc37a38c93e312a2bbd1317bbc663ae68c2c4747bc40eb95101604acd7620929f75e169923c949755ee74da7341102cdb1604e9af243304702816922f9d32ec77be2e58bf503ff263396ede66c731ab834cdb54433395e350462a7c31e4db763d6fde4adb6623313d7b8b3170521627e104157ded80d43d19d27ac9c2104b035ab62de936db420c0be6f09689cd697d62940283109f4e5b14b59ec81e379896afd3ac49915eaf55e17450e22280d1b08cbeddd6be7b54142b9b915b49d840a75b1dcbf818188eebcc78771e366e38e31cd618b687a9d3ed638a40e90e3e0b0b83964f4f49aa51f082779bdba80639d0e6e957a1d79869f09944ddaad158d93221fbbc4ccfc71a4092be24d8e74e6230ef85a6b7e068dd8ef98e6eba46b9c750daa317dd822a51a14ba6745772c643867082c203269fd67722675d5b2bb3b84690ddf99f28e08e802d25089b6aea1483d46a23a5a20c2aecfd5d12ee54ea3ac0f91705c37431b10f8ab6a20d464627a14336326fa59270ec83a44e881283046a772376f4a71e22cf6037aef9af321ea7d0304c5f5cd6bfcedb6faf244fa4d5af66ca1fc1e697be621ab33944726b21eab9d91bf13ddd60bf985c27c60600f5b1375766822275e78e79e471e099cc3dd3272baa06eb4473b9c8e5203b189cf1205eeaa01b6745cb378ff10f197a5aba473b87804038c5da44233032218e7b0b2a7bb8bb6c9999c983ab0c77b9f6d4e62dccc6bd275ddc186d824b21fb1367cf39077e278d4b3d621fa0f7ac2631d1a91e7acc1d803feb11b86df10c549a808e10fe1ff47927ad6f29b48ed5e0924e05270d067d39258ee6aec898a8429b76979696e9e4da086cdbff33091de7f5db23c7bf0734aa35000b0c351a941f6097c5989a879ad42a835f57367398860839b881745e06b9b2005dd2eea8657db645f6f0dc02d438c617a4291fa6e3d20538a619f48b5d76b82481151832c6453f27de7e1d624c56f8aa3b40b98b37653b6cafbfbb7d32c5b6f35585934a1b9b4225ca942e7c55dcf89c3dc02d11c5269e85011031fc95cd022a2e7920fffd97a8ebd59ad455579f754c555964f0ee80a833e27b89e74f0c46458730492c0ae145b8db4ca2ce0d25c48c5461d6759c7cc09d38f404241353e31122d1bbcb12646e933137a1993f01adbcbd7a4af6b7ef3e243deb94fcf629032da0b880ceeec80b8ba61d71049da21c0608df474bacfcf022c735e791bbdc349ebb4c5e2b3265aaf161573068f05109e2f7c7db513b93f2ad66ffc05d795255965bfdc191f043eaef81d83bd6a66a7f5a3b21a18573fc8145bd994ea6f693f720067e36c40f91360dd1f29046226883ac6b969e8039a5995395a239d9fcb622ad0e495932f0574a3f10e500f939f6e8232d633f06e09de2c25ac47c06e75aa155fe229897c58a4fbe18404f8659d2dd0e1dd9c21021a87d1137956a207c879b454fac32b56bff3b04fb385019a1c2151bd433750441976a914ee502f3d38946435737b9a749d49f04b3285502088ac025d79297fc46b488ea67ac453a36c3954aeb14bdd8728ae50e6c0a8fe295a8017fda50f4031a739b6a2167a0a4f33590854b5ad5bf8710282a0e85b9a50d512109782e78f0a2326db6557995bd4873c732202e8ec1bc100a6fd4148e117fadecc14a85001c9b1ca6df211a71e0b0ae53a6ad90ccde94ccb205d4d2040b2398835c3abf1105f00cf964256c885efae25659929073ecd500dc75af654fcc6f32379bde9efd16b49c8901dd54a8c5e4ea8ef2182576be33f3c2d48f11eeed87b0d5e87bc4b1c886208eb89c10b2cd84d61ad2442dfd8edff0a3a359aaff283cb564b2a464df5564fa4d8a0d1bce9c3a3bbed6bf0b7b09fbc5b895db5548cd9d5c3238d751260f3b065ddef5146b694d86280d524e6d6193c76321d1e651e3f939becc2db7ef405d81317da086ae4877c2f089bf309e3a916573bbe9c9b0ee8197ece88da75200afa197c30a75d9a2dac23f888986edc47e812618996bd22bbf958961e43cd4728b87a6c6914b1be6a809cc483be413a6bf919296daf4e5886f0b1c0abd5aa49ee4492d77c9b94f0585954d9b5b345f11460df2f14cbd0a7df4e4b1c70f1b57503e22fe3efae66fa44af557676607e4d974c059a5349f34249c426ac65a3ba6885480e11c423aa28c92392b7055d79039d26711406683a4597589422a518235f42f0ac5b58830c1d5eb79f2bf68180e3f8f1217b988ae9ae2125e84201f42c8ed3a2579e84432e7aad4fb0ae2f2d0174ae3ddb21ae9276b43dafab9463b7ebb8b13156fe808e4f2f3b4bcd2fbf76c1f3967f177c124f9ce1598d6da030ff81db6964057c9819f4ebd67d0230da9f8762b3772ee2c62d129a1cefc8acebf7c62ca0a38f0937267ccb9935c6daaf175a775f24483bff70b9c5b3507fb4d4fd57be2ada6290ce03918f1580c6c2bc46be36e4f3833d73900ea65c5c449fbb288578090953fee6860f1ab8d25af28e23c5b4b205a41cee17cfe21f1579587708d1c52eeb10782a0cbd3f7ab2dc02c6dadb1f99ac936bf16870b17545740c788d909c2fb7a3e638028930963e5ecf0bd2dbdcc94eb9dbc5deaffe9f783b94bea0666c9d65a64bde6f0127dc7b296451b90fb56914afd5fd08357a54b7564778c8c76fdff978ff0393d27475e15ad531c01deddf11b414f06051553d8d8a106daff6a8778056357e5ffc4af4ed2242ed0b16d32772553f0c6e2b66f625c7478a61317ec6428db6663c87e69d8b491cc7f86e152744af0bba6b9e742dd4f26900d2222679fbe8adfe7d7688e27707eeab2ebab3eedfd898a94cf66245f3bd65237f9c173a0e5b455a2e22f8d4f82b7f231a2560b7b2ba74b658953c1f488670595b9ce55257a24a0bff870109e9b4261085869eefbd2c212ed4c148c82f16560e854fee68806bcebbde0c60da763f21efd2e3207b6717957a9c5b2fa58821c87e55f7535b9c8bcc47ed11e21ce22607bf75149cdd2c0f761c7de5b32a9194597decd06ef1798f3931e8b9b74562f0ac40a86145bd7e401c7ea7b9e22d457d7fec29f26255f321ee09b345b906fe352b7ef3b672ac8e968d9ca05bf344851401b9f0edb6d6d4e7a5de3e7c4a1ef350f7b3fbb23b43ef6f9821dc339f9d8f4be2f91ba771a37bcc66f25f002dba521075f7d4d6d65529dc857d8618ca9b93c943f3be7b9edb4456e05f9427f93960b6e288cd33dc19875981df806542e9f4cd55e8c9841800a8aa40347f87ca5f98b756eede6b62c42f1630711957f0d1a09a6342848a1dfe1ff090a602f1904a7ea26a580a24f217336d8abfbd893c6ab3de3cd3d3c95880f64390976736b048799e6d6dced80d7cf8eb8471330e5303931626b8d80c7af0f0365f6f0bfc90609c05fc58e57f5c954c7b69c12bcbb0a91ddc21ed8b3a63504c12dbdb24c4857d87c0626e1d750f15bf0d031d2cf75d1c5cb7e08c3f6c6b29b16d558852ba262abdd2ee137ee9347a1ceb1e68bc2cc241456c06ff3181c771de5a90ac2ef58c1c7bb3b7aff488fa2c0a852cbd993b45520d82fb2de7998b8e96b913888b84e184a5cea09775dc6962402b41bc84268b43b3db79a89b7c58e52b3fb0bb30827fd8c869013d5a5be1d757e190fad5b38b26b1e7dce79b4904562556021da223c17c9ce764a62b1e6667ca376539bc65b94178bea6c3e41bdbe0fea1604ff91139168c74599c0f664cef02833a56a1971730fb8bab5d104b5861c777eda4cda5c7ca3c2c72031433abe9a4e2a4dd22d0d3d0bc5e44a1f7c8f73cdcfdb380a5a2c0cc3af21edb331ead5be99764850677bf75f8eb8a8c5bc4060f6a226a9dd42d4aac8a304e681231fe033bf45116066b008b0516c9a2933643d8f037dd5eda296acae500ac0acfb69f9d0e84c8c5774703a03359c2e735c7b3fb0ac08bf60ff20a5c829225cc7a7a28f6fb5ad633c3b7ee9b32e321bd389177a06554c93931374174f70744b476126c8df746ea3d135ecb238155dad09922d6274d25d9cacb5937793fec32428a5077ecb1c5ff7b9af7577689d4a46d9302dd57d704e7e33d85cb1afd8eef7cf7f8f733117f08d202d287bd4c934f426ca6074e3a2603dee7da4989ff528881e26c4e0fc3a390652b21138c0be231ac8176f611d60e7861b35a05e970802d0d79f884afeca409d77b32d6937871ea9ab826e4970635d44f9b4247e6ad17525dfe8ba8b89b9180f1b02b5379c7da138ad3d0fefac65bda0b674f9e5c2bf9290e9478488fe452b44bf242a7a58de26df8123477be93d8222c36107a0b8b0517a97d381d21080aece15b3ff9647db2151a3c5859770cc3e77d6d01786ef8c11deea7a8e5fd6c2adce063eb51428bfa2c93d2782efb56a5a244c5207c14e5ba51b63cb5063e2899de444c93e3d684530e9e888c024b68c0449385f4c08244e53dffd76910108e4ae9ee4cffc66a217099738ced44a1f01f13ab004093f234fde600ab8b40d9671bfcb56d17f7bb95a8e41dbdebdcf3235be2200d102beb1fc00967bc1233d759fdec1b0f7028934bfbc47f86d31140990395e20ac67c0019e0cf351e7db64d7ab3a486d4410c8f951f05cb12d9cb35dce5a5b274c59f5441e39cc74d7761397cc1bb9bf9ccfa74f71c1bcda131ecfce681e0939dbfdaed0e83f87c647eec61e060747528ec1ed885d5a634f5c63e17da370c7a566f3f63a5a9457fd53d3d9182974debed3de6fa3a0622dda6f39eac1f3b17b447458602a57b28641dfeed6976816edbaca65182cd2f3777cd0552c77adc2342992085f13da52ba25a698cfcf53f8efea542b70d91dbae4c0b2db3dd28217a99900c1f396037cbe1c14fd6406f50712fe03a55d564003eadf65c9e35d4ed5dbd121d09876c1f10aa1e793998b62ad35c118912ab092e9e02afa1c34894884bf5b37891ec761bc144108b30eef593eb9fc487b46b2c0565c97e2a633c4987bc8a7be8afd48718f78e1a582388a44c37f74c3a38d37d2ef147efcf951e9c331138a28ee9fbd93f491f88658bd80affb71796a129186379745f7934c9891de81b354df1fa032edfd561b2c03e907c7ff23a1aa96d60cd808a7856ce29a7abbb75d769e5e837b3006c0a8d38239da66748139c7bafdf226109658742441b2697770b9d39eeac2ab80085ef03b7d537b5315bb07446fb0a336bca0ef2bfd69f5342e3f1c7c9a9f9a51d635b9ed89a267fbf5259154fc3059867da11b380ed61658b321435634383172246869c1f1eee9ba5d93edd715b9f169c236c8c7269620f0d4eaf9e66ec56b8265f60a742e3ce7471934456cd5ec48269ea7e3f986692382476ae35ae9163b01ec0571a8c64df5eac281d1528be941c450b6a086df2c6a2df8bbf8bb6434b52be3b5f292b0fba8264d1442ac73be9d3efbf6bfe6ec095fb3d2da9682540c14cbb06be9c448441d9b76e70ddef6fe2e14292b7acccc85957320498133136a94df9ed4ef3e699c924173bcab932e2bf123e90c7d7f55a69ea05c6d7ac9f06fe8a60938453aa51f39be0416893a062f49dacceac7f8a2b3a49c4514d46ee3004c931fdebfef7ac2ed9a49b74b962cad35bee0d6eaa23a93731c5ba5f3d6c1d2e1ff288eac3cd6ff4a3125236bdb4727482c6c5f34f8026f8acdc409f6249146f8bdbb32b6e2cdb710e5ac1271cfbf2901015025ae67bc76fa3b7e8cbd4e01d5004e2a3461fbb82da3e1ac8e439c60d7c9587ed36d927e3beaf05028f7d0c9fb7ee73135a30d04251fa653d8043f8b3cf4b79307ac1dd2bbf1d93cdfc1ca10ed2798775fa50cbc2a20081295fe2086a1a83689abea1e574be7eefd6bfcf2b725b4595c3c0e93bcadcefb5b2ede442f9424281f5579290daf4e1a8978966f86dc76a4574ddde78b26d53394b719ea4b24be81480f4cfe50a6ea73c444998ac360b3ee514512207d0c0e84646b172f5dc41c7f54f60356a506bef141a0b1d803004d099cdecd72b7becbb69001a2c398fba97ee50a26ba632c558af5a865e2d9b6cd86fa919da4f0357d03d50343ff6dc41f2c6f10bb4ef37e15704909f57201a4188106cad084caf49bd368b6610f1c552b6faf1ad4afc0906f783dde84924b85024dc098c12fb7ce70fffde0b529e4b84e274b5aa5dcfae73b250ceda4ce63aa952228ba03eee8c8b3a8684c6dc5e222a394ebfedd994bc07472f3c935cc937b98b9f0fd8b8a4d3ddc588a38575cdba33650d3a66306fd4c07883ff84c22ae3cba45118e4588522114c5369563c0e3fbeeee50377176a5bd0ff3dbe462fd7a1cac8b249bc277e12b2dd7ac5d62018738b30e0ab65cf31780992b2e1c76b196418545248c4c4a3e26c91b0f67906be77e225646d5f6cf990c538d403dc7e676471c7c79c34531f0624a9265fd5332ff44aa74e1f427ed59dd0835f53c224fb5b9543b8eb957184bba5f2957395962707921e1aeb678fdc11f0c06e19bb5724ede3542f679462fc92edf9fff9bacdefb031db808955414f562926ed453aa9eef99ce0414875b77cb863308178ecebded09b5d32b9707b595325e11b41364ff9e9b14df8088b79d766c1188c90a9c1f51708b6f0bc3e2f54d9c9925abf5059ec657464f9305a2dda42ff81acdcf6b7b43401023a22031e6cbd7637dcdb76404c75333cbaf658771e61c81a61fb2bf2867898f8fbc7f290f4992e178c99df6dd7df0c5da5c230d0081b6adff9d0efd1ffaed557ac71bbb0acd4f6b63a45af11a2fe7d078ebfb679d2268c1a8e08fda5f5f8bb2443858a18eda73d921b8dcc38715deca841c1a010833df088eb39ff50edee77bace8cdcaa042f67a41ccbbc5b21cab052e0177cd9811b8b31aadf20c30898c8b3b770c2fc42be1c0141963ba0ef8d4950dc99c9dc0c60d1cb75d65bde2408139567421f3f8e0f7b073e07bb3e3919cf105f2dd1ead2c3de0d36962a153d46c7d1983fa7be9ab4e8635a0cbec9cbe596af28b65d2affb24f674af880dfd8100797ee9a428caba0d7b00cc789b4271495435bb081dca1ff2d9e37156e5b8a1e4d7ad7b2829de79c8097f9ea46545e90c52cc16a90d8512726da8e78943c8bef8b45e97f5ebc4c39856d2891ce85915b8ebf6eb7efc776a730ed2ab87992aced3285df24cb941b4c3524061a0d92396e8787231ec012306dfaf8e33c69d42ee15cd32e27af588bf3f36d3ed1740d52c4809a19ddbfaca2d67969d2c8dbc82552fc8f5d0f32a24bdfba4bae21037bfe15c3bcd1f1b104dc36ef57c767b3277191c2b116dbc5e04a0f69c17922101976a914142ae9faaf1a78acfcac341706a483c7e7b51a4088ac00000000",
    "txid" : "cc1f6e2653aff16d28b32cd84fd4fafbb84548aea477db917f0ca7f7d80de9d2",
    "version" : 1,
    "locktime" : 0,
    "fee" : 0.00006820,
    "vin" : [
        {
            "txid" : "9db7a187f474ebeb90e0fb47782fad6a71b57a8f8a2ca9b0fdcf770ccad3d1a6",
            "vout" : 1,
            "scriptSig" : {
                "asm" : "",
                "hex" : ""
            },
            "sequence" : 4294967295
        }
    ],
    "vout" : [
        {
            "value-minimum" : 0.00000000,
            "value-maximum" : 42.94967295,
            "ct-exponent" : 0,
            "ct-bits" : 32,
            "serValue" : "02f22c3aa41428810409e534c6ca9c5d6399cdf33e74c29941c83ee8fd73df699bfd040a401f2b4e9e9aff1a2229c0ad99456f29c728ff92f305d53bc8c6f52692634c52b74b08e41c35c259c336238ed34064a4e3cdcee76a2fd5f4a343303e29e9c7a4f60ea0511e5277a3ddc66c470ea3962df040619d9aa88624fcc350a83d63755cbbde917ddc852e3c4d44f2ba0513da25053c49f08992bf21fa974edaca194bc9d701421e07e471054a1722580c3f46b8bd42418df98a1dcf2ec899e6a0f3e0cee387763b996394cd10af2af39270c3cacb99676b038af61679382f1451f7093c52e8dbae07683122ccdd2188c53824c1904493a5759574ffab58bdbeb5b43e65de1ac7e1271301199c066ab08480dee2dd185920e54c2c4bf129d9cd82344a10868e1536d94463857c77098265d878eabaa18f061c9e0fdf6df04a642d51f68028a2b0464b0eb464cff144ba37b74a1707dea9510ef224f02016daf42d2d14cda6e7f7b1ca4a85759fcd1c8d13afe1c1173c7a11710beaffcd3b8a01e39d688e29e9dbf737f6ca0c70259e2e04c20e11f5a19112b219a47245af1865c3234d1f912f1f42ae2a8d9075f4bb0afede7793b3b32aa1e55da24e1bff2852bd3c157d0965df2b5a7e140119ab6c532d916c28fe4fb347d570b560a7d208491135d33b3fcd2a230c4f226ba6a95083ab525e984effb99ec1cf0771bcc7e4f560fb9356d70d598904ad1a8e2b9a75740e5bc36479965bc6bca856c2a63826d7d503440ff6f3846ec0ee65fcc6b09108fe5c08fa88c1655a4b5e92cda88879e2dd4e81f4bdf3aa20c794958cb6b88db17538875cf846a076a55e75f80dc6b24157da0a601deab96609ed70cfdd1cc10b6f3f30b3d04b027b8f70dff072dc7bf925e9b6b7f736be39d0468042e4a08144187d2fe08f4d796fbea0e4a8950bfda9ce1ea321b74dd5a8c215eaf0f02a7481be4cc8c16826255875121a2cfc0dff42bdeedf7ebb064a0a69169ec7037202f65a7a77dc67e9739731acaab5544bd29269140613337c572a7b63b5e16e7bc2a369fefbf63e488058ca36ca44149cf60ac67585a4de889bf31023c8c790e5e6bc322060449e932690c443eeb062ef214a39be9ebb460b34c805f9502c8d158217621f0a20f7c6b51e8c428c8d564f8aba5be275bc21977338caba08b1f529a8e69e5e7fc2b2d84ff65f475ab42f4def98dc5774a11b8e395896cad2f2e14e1787ac12d4e019372894c0111f4ba4be993113341ff65ceaf7048387ba968ead231f4fcfeb791c15dd74f130838a02e3432b7ff896a65be87b1f08915b5a161437d46c7d89fe9f3c56578fa321abe926e2db18dbdd03e48e287c646de4a02a340471207831813fadc2e140a4dba979544db486405083d0affc9dff654557c75a4ed95e84af65a03693ed70fe48c9f991e716912d870d6db38ff66ba52319967f1db751d09694d029085db88c438cbb746d164d490c10b0e9ec8a63fcfddbe958b0588cf74a1588a7fd3b82a142b372e5152e9170ae6b82044c94a3054d47e9589e2f1907eee405cb99b1045e38c294830f977fb959878c537fff1f78d2d356f9952dc48793b4ed166edb7d3e26bf3bebe5068184ac8c94273ffb124892129a9b9ff1f46f027f594564b7edab008016336939e1bc6e20079f72c1a094e61fe9165903d9efb9c8af8832cfd9f28b662cc11aa76f7ce7274980ca04ec34f6b7505042f157c4c1889d24bb9b5529aea1401abcce4172bb084ed01cbbb51df08d3108d8a6d196d0560fa9277af6cb3020aa5fb93d575195e77999dc4fca9ce79048656b04dffbf603e79b067186a23778b3838f05038cdf9fe6a2a0ef7328b418b01880fcfc027a50fa5f87dec415ca6286a1146d9a217e0d58e36b1fa77e16dd557ec15dc9953df52a89cfa9f676f5b4d2513a8b6da44d53df4bc468005e3c4337d6c88c2effd95d31364dc344ff23ffb2579f59539dc1cd86787ff960af23f43fe8890e408b16abfee918a386ada67ce48edaf05ba4a965122cc0277dd804440ce49c1d9239fedd071552e030017b71bb3be54837731987bb7dc432e22f9f488d2ac1fca6f4ced81a94e3f92ec553496416caf5a45a50a7ff8b9863841e03a93e7797db98ee15450126288fdb7b16d9ec7e6d741341db5a7fbf78b3fa22b7c86302b4d8edc272f72880d369e9e8c6558294d092fc37a38c93e312a2bbd1317bbc663ae68c2c4747bc40eb95101604acd7620929f75e169923c949755ee74da7341102cdb1604e9af243304702816922f9d32ec77be2e58bf503ff263396ede66c731ab834cdb54433395e350462a7c31e4db763d6fde4adb6623313d7b8b3170521627e104157ded80d43d19d27ac9c2104b035ab62de936db420c0be6f09689cd697d62940283109f4e5b14b59ec81e379896afd3ac49915eaf55e17450e22280d1b08cbeddd6be7b54142b9b915b49d840a75b1dcbf818188eebcc78771e366e38e31cd618b687a9d3ed638a40e90e3e0b0b83964f4f49aa51f082779bdba80639d0e6e957a1d79869f09944ddaad158d93221fbbc4ccfc71a4092be24d8e74e6230ef85a6b7e068dd8ef98e6eba46b9c750daa317dd822a51a14ba6745772c643867082c203269fd67722675d5b2bb3b84690ddf99f28e08e802d25089b6aea1483d46a23a5a20c2aecfd5d12ee54ea3ac0f91705c37431b10f8ab6a20d464627a14336326fa59270ec83a44e881283046a772376f4a71e22cf6037aef9af321ea7d0304c5f5cd6bfcedb6faf244fa4d5af66ca1fc1e697be621ab33944726b21eab9d91bf13ddd60bf985c27c60600f5b1375766822275e78e79e471e099cc3dd3272baa06eb4473b9c8e5203b189cf1205eeaa01b6745cb378ff10f197a5aba473b87804038c5da44233032218e7b0b2a7bb8bb6c9999c983ab0c77b9f6d4e62dccc6bd275ddc186d824b21fb1367cf39077e278d4b3d621fa0f7ac2631d1a91e7acc1d803feb11b86df10c549a808e10fe1ff47927ad6f29b48ed5e0924e05270d067d39258ee6aec898a8429b76979696e9e4da086cdbff33091de7f5db23c7bf0734aa35000b0c351a941f6097c5989a879ad42a835f57367398860839b881745e06b9b2005dd2eea8657db645f6f0dc02d438c617a4291fa6e3d20538a619f48b5d76b82481151832c6453f27de7e1d624c56f8aa3b40b98b37653b6cafbfbb7d32c5b6f35585934a1b9b4225ca942e7c55dcf89c3dc02d11c5269e85011031fc95cd022a2e7920fffd97a8ebd59ad455579f754c555964f0ee80a833e27b89e74f0c46458730492c0ae145b8db4ca2ce0d25c48c5461d6759c7cc09d38f404241353e31122d1bbcb12646e933137a1993f01adbcbd7a4af6b7ef3e243deb94fcf629032da0b880ceeec80b8ba61d71049da21c0608df474bacfcf022c735e791bbdc349ebb4c5e2b3265aaf161573068f05109e2f7c7db513b93f2ad66ffc05d795255965bfdc191f043eaef81d83bd6a66a7f5a3b21a18573fc8145bd994ea6f693f720067e36c40f91360dd1f29046226883ac6b969e8039a5995395a239d9fcb622ad0e495932f0574a3f10e500f939f6e8232d633f06e09de2c25ac47c06e75aa155fe229897c58a4fbe18404f8659d2dd0e1dd9c21021a87d1137956a207c879b454fac32b56bff3b04fb385019a1c2151bd43375044",
            "n" : 0,
            "scriptPubKey" : {
                "asm" : "OP_DUP OP_HASH160 ee502f3d38946435737b9a749d49f04b32855020 OP_EQUALVERIFY OP_CHECKSIG",
                "hex" : "76a914ee502f3d38946435737b9a749d49f04b3285502088ac",
                "reqSigs" : 1,
                "type" : "pubkeyhash",
                "addresses" : [
                    "n3F3B2bZXaFN8MFiHjUwhaTxpz3S2xuwFU"
                ]
            }
        },
        {
            "value-minimum" : 0.00000000,
            "value-maximum" : 11258999.06842623,
            "ct-exponent" : 0,
            "ct-bits" : 50,
            "serValue" : "025d79297fc46b488ea67ac453a36c3954aeb14bdd8728ae50e6c0a8fe295a8017fda50f4031a739b6a2167a0a4f33590854b5ad5bf8710282a0e85b9a50d512109782e78f0a2326db6557995bd4873c732202e8ec1bc100a6fd4148e117fadecc14a85001c9b1ca6df211a71e0b0ae53a6ad90ccde94ccb205d4d2040b2398835c3abf1105f00cf964256c885efae25659929073ecd500dc75af654fcc6f32379bde9efd16b49c8901dd54a8c5e4ea8ef2182576be33f3c2d48f11eeed87b0d5e87bc4b1c886208eb89c10b2cd84d61ad2442dfd8edff0a3a359aaff283cb564b2a464df5564fa4d8a0d1bce9c3a3bbed6bf0b7b09fbc5b895db5548cd9d5c3238d751260f3b065ddef5146b694d86280d524e6d6193c76321d1e651e3f939becc2db7ef405d81317da086ae4877c2f089bf309e3a916573bbe9c9b0ee8197ece88da75200afa197c30a75d9a2dac23f888986edc47e812618996bd22bbf958961e43cd4728b87a6c6914b1be6a809cc483be413a6bf919296daf4e5886f0b1c0abd5aa49ee4492d77c9b94f0585954d9b5b345f11460df2f14cbd0a7df4e4b1c70f1b57503e22fe3efae66fa44af557676607e4d974c059a5349f34249c426ac65a3ba6885480e11c423aa28c92392b7055d79039d26711406683a4597589422a518235f42f0ac5b58830c1d5eb79f2bf68180e3f8f1217b988ae9ae2125e84201f42c8ed3a2579e84432e7aad4fb0ae2f2d0174ae3ddb21ae9276b43dafab9463b7ebb8b13156fe808e4f2f3b4bcd2fbf76c1f3967f177c124f9ce1598d6da030ff81db6964057c9819f4ebd67d0230da9f8762b3772ee2c62d129a1cefc8acebf7c62ca0a38f0937267ccb9935c6daaf175a775f24483bff70b9c5b3507fb4d4fd57be2ada6290ce03918f1580c6c2bc46be36e4f3833d73900ea65c5c449fbb288578090953fee6860f1ab8d25af28e23c5b4b205a41cee17cfe21f1579587708d1c52eeb10782a0cbd3f7ab2dc02c6dadb1f99ac936bf16870b17545740c788d909c2fb7a3e638028930963e5ecf0bd2dbdcc94eb9dbc5deaffe9f783b94bea0666c9d65a64bde6f0127dc7b296451b90fb56914afd5fd08357a54b7564778c8c76fdff978ff0393d27475e15ad531c01deddf11b414f06051553d8d8a106daff6a8778056357e5ffc4af4ed2242ed0b16d32772553f0c6e2b66f625c7478a61317ec6428db6663c87e69d8b491cc7f86e152744af0bba6b9e742dd4f26900d2222679fbe8adfe7d7688e27707eeab2ebab3eedfd898a94cf66245f3bd65237f9c173a0e5b455a2e22f8d4f82b7f231a2560b7b2ba74b658953c1f488670595b9ce55257a24a0bff870109e9b4261085869eefbd2c212ed4c148c82f16560e854fee68806bcebbde0c60da763f21efd2e3207b6717957a9c5b2fa58821c87e55f7535b9c8bcc47ed11e21ce22607bf75149cdd2c0f761c7de5b32a9194597decd06ef1798f3931e8b9b74562f0ac40a86145bd7e401c7ea7b9e22d457d7fec29f26255f321ee09b345b906fe352b7ef3b672ac8e968d9ca05bf344851401b9f0edb6d6d4e7a5de3e7c4a1ef350f7b3fbb23b43ef6f9821dc339f9d8f4be2f91ba771a37bcc66f25f002dba521075f7d4d6d65529dc857d8618ca9b93c943f3be7b9edb4456e05f9427f93960b6e288cd33dc19875981df806542e9f4cd55e8c9841800a8aa40347f87ca5f98b756eede6b62c42f1630711957f0d1a09a6342848a1dfe1ff090a602f1904a7ea26a580a24f217336d8abfbd893c6ab3de3cd3d3c95880f64390976736b048799e6d6dced80d7cf8eb8471330e5303931626b8d80c7af0f0365f6f0bfc90609c05fc58e57f5c954c7b69c12bcbb0a91ddc21ed8b3a63504c12dbdb24c4857d87c0626e1d750f15bf0d031d2cf75d1c5cb7e08c3f6c6b29b16d558852ba262abdd2ee137ee9347a1ceb1e68bc2cc241456c06ff3181c771de5a90ac2ef58c1c7bb3b7aff488fa2c0a852cbd993b45520d82fb2de7998b8e96b913888b84e184a5cea09775dc6962402b41bc84268b43b3db79a89b7c58e52b3fb0bb30827fd8c869013d5a5be1d757e190fad5b38b26b1e7dce79b4904562556021da223c17c9ce764a62b1e6667ca376539bc65b94178bea6c3e41bdbe0fea1604ff91139168c74599c0f664cef02833a56a1971730fb8bab5d104b5861c777eda4cda5c7ca3c2c72031433abe9a4e2a4dd22d0d3d0bc5e44a1f7c8f73cdcfdb380a5a2c0cc3af21edb331ead5be99764850677bf75f8eb8a8c5bc4060f6a226a9dd42d4aac8a304e681231fe033bf45116066b008b0516c9a2933643d8f037dd5eda296acae500ac0acfb69f9d0e84c8c5774703a03359c2e735c7b3fb0ac08bf60ff20a5c829225cc7a7a28f6fb5ad633c3b7ee9b32e321bd389177a06554c93931374174f70744b476126c8df746ea3d135ecb238155dad09922d6274d25d9cacb5937793fec32428a5077ecb1c5ff7b9af7577689d4a46d9302dd57d704e7e33d85cb1afd8eef7cf7f8f733117f08d202d287bd4c934f426ca6074e3a2603dee7da4989ff528881e26c4e0fc3a390652b21138c0be231ac8176f611d60e7861b35a05e970802d0d79f884afeca409d77b32d6937871ea9ab826e4970635d44f9b4247e6ad17525dfe8ba8b89b9180f1b02b5379c7da138ad3d0fefac65bda0b674f9e5c2bf9290e9478488fe452b44bf242a7a58de26df8123477be93d8222c36107a0b8b0517a97d381d21080aece15b3ff9647db2151a3c5859770cc3e77d6d01786ef8c11deea7a8e5fd6c2adce063eb51428bfa2c93d2782efb56a5a244c5207c14e5ba51b63cb5063e2899de444c93e3d684530e9e888c024b68c0449385f4c08244e53dffd76910108e4ae9ee4cffc66a217099738ced44a1f01f13ab004093f234fde600ab8b40d9671bfcb56d17f7bb95a8e41dbdebdcf3235be2200d102beb1fc00967bc1233d759fdec1b0f7028934bfbc47f86d31140990395e20ac67c0019e0cf351e7db64d7ab3a486d4410c8f951f05cb12d9cb35dce5a5b274c59f5441e39cc74d7761397cc1bb9bf9ccfa74f71c1bcda131ecfce681e0939dbfdaed0e83f87c647eec61e060747528ec1ed885d5a634f5c63e17da370c7a566f3f63a5a9457fd53d3d9182974debed3de6fa3a0622dda6f39eac1f3b17b447458602a57b28641dfeed6976816edbaca65182cd2f3777cd0552c77adc2342992085f13da52ba25a698cfcf53f8efea542b70d91dbae4c0b2db3dd28217a99900c1f396037cbe1c14fd6406f50712fe03a55d564003eadf65c9e35d4ed5dbd121d09876c1f10aa1e793998b62ad35c118912ab092e9e02afa1c34894884bf5b37891ec761bc144108b30eef593eb9fc487b46b2c0565c97e2a633c4987bc8a7be8afd48718f78e1a582388a44c37f74c3a38d37d2ef147efcf951e9c331138a28ee9fbd93f491f88658bd80affb71796a129186379745f7934c9891de81b354df1fa032edfd561b2c03e907c7ff23a1aa96d60cd808a7856ce29a7abbb75d769e5e837b3006c0a8d38239da66748139c7bafdf226109658742441b2697770b9d39eeac2ab80085ef03b7d537b5315bb07446fb0a336bca0ef2bfd69f5342e3f1c7c9a9f9a51d635b9ed89a267fbf5259154fc3059867da11b380ed61658b321435634383172246869c1f1eee9ba5d93edd715b9f169c236c8c7269620f0d4eaf9e66ec56b8265f60a742e3ce7471934456cd5ec48269ea7e3f986692382476ae35ae9163b01ec0571a8c64df5eac281d1528be941c450b6a086df2c6a2df8bbf8bb6434b52be3b5f292b0fba8264d1442ac73be9d3efbf6bfe6ec095fb3d2da9682540c14cbb06be9c448441d9b76e70ddef6fe2e14292b7acccc85957320498133136a94df9ed4ef3e699c924173bcab932e2bf123e90c7d7f55a69ea05c6d7ac9f06fe8a60938453aa51f39be0416893a062f49dacceac7f8a2b3a49c4514d46ee3004c931fdebfef7ac2ed9a49b74b962cad35bee0d6eaa23a93731c5ba5f3d6c1d2e1ff288eac3cd6ff4a3125236bdb4727482c6c5f34f8026f8acdc409f6249146f8bdbb32b6e2cdb710e5ac1271cfbf2901015025ae67bc76fa3b7e8cbd4e01d5004e2a3461fbb82da3e1ac8e439c60d7c9587ed36d927e3beaf05028f7d0c9fb7ee73135a30d04251fa653d8043f8b3cf4b79307ac1dd2bbf1d93cdfc1ca10ed2798775fa50cbc2a20081295fe2086a1a83689abea1e574be7eefd6bfcf2b725b4595c3c0e93bcadcefb5b2ede442f9424281f5579290daf4e1a8978966f86dc76a4574ddde78b26d53394b719ea4b24be81480f4cfe50a6ea73c444998ac360b3ee514512207d0c0e84646b172f5dc41c7f54f60356a506bef141a0b1d803004d099cdecd72b7becbb69001a2c398fba97ee50a26ba632c558af5a865e2d9b6cd86fa919da4f0357d03d50343ff6dc41f2c6f10bb4ef37e15704909f57201a4188106cad084caf49bd368b6610f1c552b6faf1ad4afc0906f783dde84924b85024dc098c12fb7ce70fffde0b529e4b84e274b5aa5dcfae73b250ceda4ce63aa952228ba03eee8c8b3a8684c6dc5e222a394ebfedd994bc07472f3c935cc937b98b9f0fd8b8a4d3ddc588a38575cdba33650d3a66306fd4c07883ff84c22ae3cba45118e4588522114c5369563c0e3fbeeee50377176a5bd0ff3dbe462fd7a1cac8b249bc277e12b2dd7ac5d62018738b30e0ab65cf31780992b2e1c76b196418545248c4c4a3e26c91b0f67906be77e225646d5f6cf990c538d403dc7e676471c7c79c34531f0624a9265fd5332ff44aa74e1f427ed59dd0835f53c224fb5b9543b8eb957184bba5f2957395962707921e1aeb678fdc11f0c06e19bb5724ede3542f679462fc92edf9fff9bacdefb031db808955414f562926ed453aa9eef99ce0414875b77cb863308178ecebded09b5d32b9707b595325e11b41364ff9e9b14df8088b79d766c1188c90a9c1f51708b6f0bc3e2f54d9c9925abf5059ec657464f9305a2dda42ff81acdcf6b7b43401023a22031e6cbd7637dcdb76404c75333cbaf658771e61c81a61fb2bf2867898f8fbc7f290f4992e178c99df6dd7df0c5da5c230d0081b6adff9d0efd1ffaed557ac71bbb0acd4f6b63a45af11a2fe7d078ebfb679d2268c1a8e08fda5f5f8bb2443858a18eda73d921b8dcc38715deca841c1a010833df088eb39ff50edee77bace8cdcaa042f67a41ccbbc5b21cab052e0177cd9811b8b31aadf20c30898c8b3b770c2fc42be1c0141963ba0ef8d4950dc99c9dc0c60d1cb75d65bde2408139567421f3f8e0f7b073e07bb3e3919cf105f2dd1ead2c3de0d36962a153d46c7d1983fa7be9ab4e8635a0cbec9cbe596af28b65d2affb24f674af880dfd8100797ee9a428caba0d7b00cc789b4271495435bb081dca1ff2d9e37156e5b8a1e4d7ad7b2829de79c8097f9ea46545e90c52cc16a90d8512726da8e78943c8bef8b45e97f5ebc4c39856d2891ce85915b8ebf6eb7efc776a730ed2ab87992aced3285df24cb941b4c3524061a0d92396e8787231ec012306dfaf8e33c69d42ee15cd32e27af588bf3f36d3ed1740d52c4809a19ddbfaca2d67969d2c8dbc82552fc8f5d0f32a24bdfba4bae21037bfe15c3bcd1f1b104dc36ef57c767b3277191c2b116dbc5e04a0f69c1792210",
            "n" : 1,
            "scriptPubKey" : {
                "asm" : "OP_DUP OP_HASH160 142ae9faaf1a78acfcac341706a483c7e7b51a40 OP_EQUALVERIFY OP_CHECKSIG",
                "hex" : "76a914142ae9faaf1a78acfcac341706a483c7e7b51a4088ac",
                "reqSigs" : 1,
                "type" : "pubkeyhash",
                "addresses" : [
                    "mhMbDc7wipK8K2GagpUDqB4du7jKSEduo9"
                ]
            }
        }
    ],
    "blockhash" : "7f8b98f656d8ffa592baba7decbdce3fb31e522d00e8673f72837c45d56d4d29",
    "confirmations" : 1,
    "time" : 1439797449,
    "blocktime" : 1439797449
}
