{
    "hex" : "0100000001a6d1d3ca0c77cffdb0a92c8a8f7ab5716aad2f7847fbe090ebeb74f487a1b79d0100000000ffffffffa41a000000000000020375343f63950d5c62546155782fd7609cb2eaa7a2ca86b077571a5f916a1da996fd040a401fb86b20d2b4501654aac3ce47d3d253bf817440b271622407774ac2b3f2a7a216a99464592ad3387e2eface93af8b0607684b6f483d2dd08ead9310deba8605bbc9abbebadf3c0a64c78439a91d7c629db5cbd40dd1a1ebb819de11be92716d613720f8fa6cb04cd0c63d592b042118fe33cde495f23662b925a4e13ce5d776e0f95065c0fb4872f9d5bc2adf6d234295de5386e862c7d6cfbde965b68fd5f010d704008cd1ad2ab635a433153871b44fc7564052ab6a940d89c16f8627bf6f2610190379f87c5180a907a995639d7bb547d1dbf0aec5a8d6d27d4ca00b6e2df768909ae9904fde08107ab38f27041884e476764c8d1ba5caf7e550dfe8f6fd5ed07be7af40314101967f1dcf2f290e3c8647cffdb489b7878248d8033adc20776ba5c6e8493c4bdeb28389096406639aa1f75dd2a97a74d56c652b5a7310bdbb454d380a8c880fd0d9f0191ccaa53e02e8caeba91df508ac1c14725c9c1dd93b5b19727c3d70baebac186de4871cf0d7db23c1fec792bf97a3fa3a1e6435dbc3623f7b11f1039fc600220d4af6b78e11d7411981135fe6d92e18c59fae30ab84f6a7cf86722bb96cda8fe5c1d86d57f235af29bc18375b1286140c9019ea6ede98fc4ea314a0dfb88e952848b9e6ad9afa7a17a7fa1758bda1c23f7b540493a13bf71cd74609d001a15b541d783c16a48bd23040b2f94e1d254b7130ac80ca1643e587835bcdf6fba43bacf6ccf150723a3d72309bd05d390c8f555cd8f9f5e3a2cc06f4bb3c3fc9f3fafb2d72a63e07b9a3b35c4e8cbacc1671db5d1934556de18644133cd74f8d64d04a46f04bc6ccbc40d74ae64c2cc480d8c8ad4ee5f01eced1969fcbe32e237626c7116a211f6ee66decfb8cd8ca3e0e0c4f7ccaeb3077e76da45d0878e693c689c85b65d80f86a516e1ae027ac27384af353ab9471ba163de7e6332e7ab71c6a00b580546813697503614787c4c6f20b19abd758735a43099daeddc36cc925a902dbfeec10cf5038c6b23d0f2e5e5edb0e026028376249abd5fde5265acda5902b18702697097a8909fcef5bfc2004356c9bc2ca325a44bdc2a226761e8ff93b2dd65cc45fff2f322ece3fe1b2e79b455f7dec3f9432881d3fb0ee01f0774ea946236adc8c9df17346ae71c30db45f80008c3510baf44d30a4fcc1b1e6dbc26219da9f36123e465f93cfdee6213ac49236c2cea85f7b313e7ff8d9f5ef5fb78ff8d9630c1b1a86c9a5787d7d4813e508283ea6ee3bcdba5192b7e1e041dfa68405b67353926c42bebec6bb46d4d493e596e36d5e26bce71709ddf14c8274394c82cbd491885e171908af788cb3369c2f872cc7945e9f4e85e4254152445a44dbe2a252a5c9e5d9772d761c0bf8d4d0b04d24b69b21cdf024e08cdc2f94e83988d131c93fb047aaa328ac680962bcf1802c445a3dbb66472177ad5dbd4a0967dc3bb40de207e7de6083a9a907d01f42f818ac4fe36451835b9fc956ed1fd7728f0b61378d1397cd22c4f71a2b2486ec11b1c123d885a3c3858941bc33637fbd8bf437a71baf846bde7df8e73b054d84bea2cdd357e6b79c30b7d3479352f6d045808323ba26c9ab3ca84dd9a3a40330e763a703aa8f82b5acb32830e2b691311dffb21f420438ebb65fd947711ea6714e997776e2b20272d07bf3e7eaf08ceb4e25fd439c4ec3cb6ab9f75e8d1d3263efbe7ee0bb56a0d9d5c8aba0330e6e0a0545463bf727c1e36d9ebc2a04ea0f5498d554fd9b6b4105d25e83841a9ed5f695aad07ab0626ca16d4e8601f77c421f99f8e240cbfe58a56bdadd5939e798feaa6274d1de68badc87c4caf5f459dc75118dedb6d56671830d2b043ba3aad3c951331feaafe914a4427fe322cd12f10138d1c32d3069db0ce404819e6adf476025dd9e27dc2fb6c0fca037057cc2d144d64d0a630c29e43f71ce1c43334db6d8e3b428f69fd10a2122ee85cb32d435ac09f28e9a65d1e2d993ab5d2a9f89e06a84323cc0f30a3336a9ebd89b01f9ebf3b779254970e0182ef930f14eb2fbc45530053cfe0592a87f75f4e484c7934991d41d9d7de3886cf549b655432d4b9ae136c68e499105aa41fb423fe9dc3fac555b50de9b1fc734c9ce873b15c3a9115122efe36576ebf2ee3db9dafc0789d78ef58db74f520d716be70ff98a96a31a087e5880e9c67e19b93e57cb6b27e691d0d83280c33890ab35ed413bdb0d8f711b94e8eb2de3129a0b588eb50d2ce71c3f261021ee80f6462c887a012e04c7d108af0099414e781c342f25dd913e21a0847a77516ca65bcb021178c2d6b43b7bee636f94886c9f59e8ff60e5bb45a189b83fe11f6ec24ca16fd34d9b3e2df910ac6ae72b1ac0b96759437c96293b3ccdb5ef3ac805f76dadb3d041fd101ca9bd4881086ed070606e1ec976b5c6ec03eed8bf7a26e4e638b2524acfe3b743cf4177fc31c9f64f180494aaf9574f3913a0aa839ef769053ef96981f56a73cd2a3995613f9e707630be4cda2117801073e7c18ad22a548c58405b60c552304d55e7ae293f994d3df72b885d8cc0cc5040bdc0c71a2da948cae84a9f42dd8ce42701b30fad758eca1ddd000d1636b15b5a86bd98473f4e8eea49ac4f63436423e226e2f4ce339d14cb25cab6f2bc22313a7fca7ff9303c91ff1229e3dfba554fb3604a343c08745dac2e20702bedc8e23b6ddf0e64f48df98dd24e490b1422a5f3b2ccec6846d52826e1fb7cbb2c56a2ad1bc04399e7025c0c01e06de9abbbe26b557ca5018cbe514499e6e42b45a9a0a210bc14e6f87621e00486cb8c0f1145ba829080dfb4c93cf6ec836323523a47132e0f5f6c300116ff44e83bc078d0b2d05c6bca1656756eb089682e57ace990f5c8ca617a481ad7592ee9b03a7691ee1fd45cb04a40b4aa5768ced703b0e47d7ad74348f2bff6c3dbc5ff0039bfcd0423f7c03064f5faf23d091b3c6de3fd5a36798287c09a93f53fcae4e132f9e9532e23c7d8c83594c103df29c647ad8220d923ccfd5110b6df342ec81fc316b06a91a3d28c8195b9d9fba74aa85c6117256d6f821f55b42c214d8a27cbfcfa5d0b7170c4812fd53e1b55fc06430b603a72de502d2e5452ad7aa1f93651044d6b14e349e87ef746bdf0dae8099b14eea1f430fed835e6c5e0ff079b724ca6f7bcb78a417adaf586e2449fc25a377456fe225667f9bec7b473ed33092c4ce4c73655eacb79f667eb0131ecbd855ae5f21ea96a5b9e31c0e089829ea1fbcc357dc192a8ba4d38ac1c2cbfc37791d619e64c4c049dc496ded69e0a8dc58295745d80861741d343da545f1ca1f28179edbb9c2c5c6201ed2838761b6bd0a66701960892e6006fecde7050b0ddb993cc35f4fbe04b81e54d4da1cfa95d37e47ea1d951b5aa99abda1c6cd521c2f3a8b36f52daf71447d8aba7af57ac6170e4b0db2d97f749ac608b1d92ea8075a00d543485d034c33d4011e472964dfd94afc78d3dd13ec68d9d422235a62d0f8913cb90aa0466d5e2da67d9a0ae8699dfaf1e69bfd62c3295028f0c62775962f058d98a09a501fcd5ae5672decae65fb0f56378bcb7fa374e1a6a57f782a48948d95ba13e3a2d79bf216be20cbb5a05aa77d2721027cd41b0a0d53e4eaa9e1f9cdfff8f75011cd4248c5bc33b6b0f226267b75df6c1976a91446155e53bdf765418da657f80fdc871be3692ce988ac02c803885aca957156a658499e7a795de74b234f61566376a6cd06744540ffe525fda50f4031bde11a45dd8507c6618e613420218a30de741ee8b089bd8038c39e1a3d544876b5f6d33aeebca3ffea39c01f6a2fb6eacee7965dc1758b3e5ee1e9f66939926dc0753e8f42bdb42f571a300a681edafb3fb32c1e466aa408c421177d9c7cdf8480873cc40a2622be602cfdf7473cfd3a1da80512e1e21281e541cc93cf1c039deabfd8e18b539c7ef11ad8d1e219d72bbac6df3170abfa68aefdfba514f0febfbd76fb1171ed2b176617cbac1be2055348409bf110f967d9093548c9b4777a250ca0d87bd9440bf36e87c4f5de5c57129ddc87cb8bd844c70577f515133ba17aa9a60bd4b3ac2e5c393a08f5db1afda3c6005a4710119c0300d5d1e219fa5328b3dbe27a7198b81837611493f1d2f434150582f77bc0d36b2a45ba81e642daf6c9c6e9a8ff56fafae877f1145e54c58df80e1c8ba32cc32837ee548ec43fb39262ba2b00c87d6db28d2b07a52556a6ea33158daaeff054b54534d0e477cba2ddd3799600fd0c17d414d87a4c334170ddbba861ddc5572ae633ad5b7665616855b44b44e5192734e9252da8b6b394745db07e780487803479574df0ac562999bae78fd0bb8f7b3bbeb66cf4e2fa7547d2cc4cf18385baf152bd701829b4d822484cae89f50b93685304a35c496fd04c8006cb5f05a2b8ea0f8ddbf99fe890e6e0debde2d71381160a01d56b654267721511336e7c9e8644cb4b7c87cdade9485846057f13bf74493897080177b7103efaf618456cd63cff29e5e635979fabb299ed1402495829cb3fe0dc2e139249458152d9f65f2cc79e95d8765b4e754260aa549467eddd5571a3d34aec015b02ee43432c183d58c72eddc71a917c6083c19ef480fca32920892ae9f976ed38ad92473b8f5b267f85af4392b0edc35a74cd724b39945681739ea8c7eb1bb0ea166afbd814ebab68ee1e65969b9ceca325609bad6bf6a0ceaddaa2241ea9c39da25f39a3f7df6c61c38abbbfa10ea176233205c94253b32759e7354520ea67e8067905a7cb8a492c2845a0bf94cbeca110b69a0aeb6b8f1aa963ca4f3b45cf772abddfbc0883c0f1c5a57af590e73250fa90613faa0516470b25bb42e18c70aaa8d826e3316239232e134c2f08912bd7d728eef8d8e48de2c36b1e2289b248e98afb6d258e6274d809937d9e7879513725e9b64b4f023cd4c696f3872275376afb8a94da149f6970b6ee8500b0002c7e509543a5925ea29aeab9cd0ea435da3fb102704f792159d97f7a9e123f5397e0a9281db4d46c914107c24c0dd958941b908ead60881ec3d705ee119170bf811e64fb908c514181d2d156ab6ec3c48665cbbc5ba270bb74b98b3caddacf694a56b461481bcb9767df7039a75c2f53bb5e3e09ff34829c65640341d2807f34b7fc0554ff1bf29c5502726f0ff6cd5882aaf39ad4e926fd3f68ca3a3f31e2991ffe38d486673560f70d0989f0e6a205d731281e1c9c636cbf5dcb02ccec74f2e3a6c980769e1339679886c33e1cf2f8ebbc6788f7876ae6defc4c208e385f18ba50912bd1de74ed476544537e3bbad2fe84bd1107400acee497d279b1b58b41f7a9ee372239eb57cb285b98db8c5f20ba7b957edce1a806001dffa095164a57a60059fcf0a3f52ceb32f9945be2c6ba538dc1374405df707c252824d6b84be2d345227c21509c8d34aa472810855dc59a57dda89f4fd87af3ec70953797b14d91e3aeb18ff611e20198a18af6cb0d4b0b37adec4c23326dcfd91d74d316e8eca3fca27afd94c0a9a1819f0eac7eb4b3d003478a4477628dc8ef64bb5b5df12248b189e8b55f64d59a1474cec3edf4859989a4c97b62806f87e6756fff9c2863e4bab457d4f66b30d3f7a379eb9312624177aa7337e8af484c0b75143e30a51cced0002843db13f979552720c9f7a39927d49bc93c7e5892b5f0737a1038622d2e689bd48f89f1be641de9e450bb7b0e1cc05e8229251657b8d82075e1bb27cb00b144287373fd9d3d880a5d17fc6d06e8d248b381c31348927b934bc746223a52b0f48b0cdbe079a9318641d0dd47f51f5bb778c9a7eb917a3116aebc2376af31a2282960ca037e9b1ba95f7ddd937bde4efb7e76cae093959ee1e56d136b6ae3b99265e8ee3ae6a4d85ad81478ee3e6194260dd96a17829d34b8df23fc29ebf5a6bf23dfe1f2935ed1834fc0e73d70d10af1f8fdeaf21e7417e6fd0acfef8f2d18a62d3a9d2f5572bea69e9f70e58603fd887c3e943e457cce250da5566f6dd10b134758897d210db78152e6a612fde20ecae397980f561cb5d01b1c0b97d6510ff5ba66054a4ed5a964254086070c5d3332a682303a430e4e6b47cb5563ae8f02b8a2f319585319787ae2d514c576414432b0683f20eef1db40136c71876e17cf87e66cf21ccb4deacc1a7ab42a122b21eb84122eb4792e1ccb920fcf7f2f205f517445fbb18ba24c78b5359e690b1952a6f6d6cb8c255c4d633aa864203428b615d0d80cf09c1de7ecb45b8396681730a3d8179978027d39abd2d5d76acdb2a187cf80a64b6326bbdc7e3ebdf2eacc909d7c3c8095d694d9e562bd3ddfc948fcc7cb520c27e4df537461aafd14ff24847c891ffa8868dabc44d278b55c7a9725763debabe84541eb25fdb80b77d766df8c2d6ebf3a605bba291fd5ac058cdf46cd1dedeeaca33cc170f41f489ae9e9f5a29213b3c62cb7f4da28815a604398f4aaf92aa8129d5fa5ce62d2c9157da136b05a6cfc7367ed84dbe83d7cf122b324a94dfa8461846243bd3ad8ca76dabd9bf673b347861fcf2dc1e42ee8b6154a50fc1fc44d63959a76e65232e722ab3f31131b2abba1ffd1a8b4f444c23a4c7ccea208f0f443807da511b107ff0511ff70c303164f41d74553e48ddb8244b3899a7124c9ec1552fcb37dc9772d40813b3f9521d554f345aa95afac01ad80c4bff8b9070eb67cd41c1edabae1177b4c8828ea5054c5414abbf4f56fe357037dc245b5fb97ad1586ef15940dcc8e485800672a01d935d14ec4b74a0a31c9d0c9fd8e6625cabfba2c44f035e238ea5a7c8def2e9e480173641eed2ccb9cede29c550fbfb097892f545fe9dc4f5afad82ba3f48ce2f182c510ca108716bff69a412af5dd1fece5b7d182ebe54343aa72d0ca7272e4ee7b0f31fc598c456a256d53d86ec9799d1d2ae178d52cb1fab405ec14656582661c90f123d8cf218b72af4290d812c938e96e1a7cbd04deaebbc12152ecb050d9ad043e7307611fd20a3d95be5aa0ff945860a9daa2261e07fcc9356fc04db2dc8b1326116635136b078903b274ae8aa6bac780aa145089d6081183b7569173f42e2a22124b92fbcbfdf570332733170c0639af424d9a5c7cd44fd36b1b40f0dd99914b34446da5b282c76128134acd3f911fe545cd179c0b755b8af48323978da9a5c8e0dd35c07901093cfaec5c2d02a3da748adc7911bb35d89c00dd5c6f4d6ba01b74b5a80e07d26c7b23b764f1293003cf6da18af4956fdb27a9145c5fe9712cae78a2aadf78249937eaacd0784215bc8fb3b98fe4e1305a1ddb0ffe7e44e81187c5a8bc50e7c06de46d3389240791bd276e81a907aad62c827882e032bdc711fe1387d6f045b21bc8dbb5e74b978e85f7a7484ec28fd49b5c99af2ecd3b05e8519544a5d8c4bf4be99071cfca0e261ba52d4bb36905816e877c9efed9efefeec7efe35ea1c719850fd2758a8c0b75b16058dcd53d771e9bcd081aa290d9f6cecc5c02aa5c738c1a971987d3e7ce8cce5b4766fe9ab861996ca25b660557117c1d47ae11f30be58fd7e95d7270a17dfabc61618fedb4533fa1d90a84509de475fd43879101e95aedf5dd1aa67ed792392bf7b8fc497511a1620b48e00c2d5a42b2e353a8e18d23860af3adef888eba03b06d34a65d364d43e32b959e960732a9f8c6561570bb2fd970efe593e1c231d9fa47e18c5b91276909ef7644a2bcfe77ae47831b2cc2cbd6267c627aac1e91e5f8c73ad7cdfd54516822354ddab7df72022d6679a3667b6e49cf2925fb8eddf93d9be2dd151bb08d38ac92fa445248b1a117092a49d16fcd5c02552aa2c87ad1517fd755e33b2e37b5dec7050eea25699f2ee248e2708afddfe5203d2727db277c6a266dcd1558392daf393562fe16a496996c81eeee2a3c55dd4533db5a478d9bc13ea7db2b438cbcbe5c79d74e86e3ddf2c83fa6ea2202f5e41406505756827c269485fa84c3a81163fbd1144dde5c5cac27489ae4b8c82ed6069cdedf64cc749f955e4f56f32c40e6e88ccff57527c7bda69e8ce7507e9dc29aef0c2fd0c5315a04fa986a93b890bd16650ff6f1d857d5d105290f90cc59e0c475c95d7ca01a6dda61dfe1ebb1479aeae871fd7abb4f4467ef738e54cff8ad220a1e5bbf7dbcf4fb37f236122ef1582078e63bf313077ff843d7b634ef81c47a6be3396a6a327657d640e37e73f4dc0abf95ab77f51eb6bbca179fb7872db4555e8038f038f7575d0b39ee08fc7feb225ffca53668963a2296d1740c696a0c0afa76a59575df356de9aed383b6141158048fdd783c68283872a397ce61a20758bfe04e6715e58747a5b13d64f60e5c25a4522f7fed0cac9d8538d5073286aab73c042057d302e5431b2ab33cf574c33795f51620d8c9e48f54843ed585aec35ca40ae6d8d9a2ddd2c2df6a441ffd9301fdec1a8ce6de0b98bc49fd367def26f4db33a01f6da076d6208a53e655424574e45668a1917b43d591c1eb8c34a1ffb1ca33439d37d6271b920e735b7339d55c1b0c265b63b18c53f1badd8d4ec152eac1516d8c0fee6b65407e4b3907926f32a175c92debb9038936e50fb23184bb378062ff0b20198d2ebf0ac98ad317963be03f6aa1d44dba46278976bd542e62fd8c7789d46124a8c40e369627881f7d8fe03befaa50cd7e4ef2386a40137bb8ceeebe6cf853ad3a31d12f58b15d1c1e32f8f79ab448f1e2eabaa3dca8b3c8f0eeb2cee81e534cb6e0d999c387ef8fce3cf3af8742a9c01b85260b3839f730516a8c125d014839645450b211bf013c9f0872b0024e4416b6bdf73f9c5967ea056a3f982294297b5c1be67a00230e0ab636853bd58a3b81ea590c217bdb8d4600f3ffb97fffbf14934132fae1ed2379b980d5fcd4d20199e8de7600fade7d3e9a0b42f1664358383a2108b43540e450c39dc5dcbeb4e0d3afa681a8fe75eca8b372d3952608c7f7b37b3e3b50f7a82c67d43f5908066a26c5b08c5053644ca5388b7e5cc8521f257b31064a728b1b27fcb4b547855be9b71d2c1a1b1092cfd0144e4e37b303efdf231e87738e4ff6992e4c1befde3ae4487b0c1a4eea18ba80b650de0909ab91727b6cec9de0904b5dea6f659e2c443569ba9211d76d83cac048f3b76896bb1a10f8cdd2935b8fbbda49545f71f6cd32fd7c6e874a294ec68b18601240bdd1af66c27972b30588d98bd0347f2707a8befb4fffe8ea3ebe3ea2ee6066a044f71b25ac0797cc537063eed8b8bc40f6a0e5929c870a89d4eb495ef6ffc50aba653b54e06e1977fa1f935d5250e650544ddd33dafa249ab76fbb555c7ab8cd05ff38332489ded5705bb451ab5df0792bd2e90f23908dc956b7cfbbe34d642623a5f57cd5bc4eaf2f97fc4ff1f5ecb11fe376931eb2fd6b7ae6fe8df61bfe3bab3b425e210234bed4dbcce45b37b12d4e5cf7784fd46807ed51dff6877d987cd85677b8d9551976a9144040ffe3d17e69df24daf28874d3e8e5d100461e88ac00000000",
    "txid" : "e067ec45676e6092f913e2f08dd0dba6a8d5956b2857e7454b67accc5f8b7452",
    "version" : 1,
    "locktime" : 0,
    "fee" : 0.00006820,
    "vin" : [
        {
            "txid" : "9db7a187f474ebeb90e0fb47782fad6a71b57a8f8a2ca9b0fdcf770ccad3d1a6",
            "vout" : 1,
            "scriptSig" : {
                "asm" : "",
                "hex" : ""
            },
            "sequence" : 4294967295
        }
    ],
    "vout" : [
        {
            "value-minimum" : 0.00000000,
            "value-maximum" : 42.94967295,
            "ct-exponent" : 0,
            "ct-bits" : 32,
            "serValue" : "0375343f63950d5c62546155782fd7609cb2eaa7a2ca86b077571a5f916a1da996fd040a401fb86b20d2b4501654aac3ce47d3d253bf817440b271622407774ac2b3f2a7a216a99464592ad3387e2eface93af8b0607684b6f483d2dd08ead9310deba8605bbc9abbebadf3c0a64c78439a91d7c629db5cbd40dd1a1ebb819de11be92716d613720f8fa6cb04cd0c63d592b042118fe33cde495f23662b925a4e13ce5d776e0f95065c0fb4872f9d5bc2adf6d234295de5386e862c7d6cfbde965b68fd5f010d704008cd1ad2ab635a433153871b44fc7564052ab6a940d89c16f8627bf6f2610190379f87c5180a907a995639d7bb547d1dbf0aec5a8d6d27d4ca00b6e2df768909ae9904fde08107ab38f27041884e476764c8d1ba5caf7e550dfe8f6fd5ed07be7af40314101967f1dcf2f290e3c8647cffdb489b7878248d8033adc20776ba5c6e8493c4bdeb28389096406639aa1f75dd2a97a74d56c652b5a7310bdbb454d380a8c880fd0d9f0191ccaa53e02e8caeba91df508ac1c14725c9c1dd93b5b19727c3d70baebac186de4871cf0d7db23c1fec792bf97a3fa3a1e6435dbc3623f7b11f1039fc600220d4af6b78e11d7411981135fe6d92e18c59fae30ab84f6a7cf86722bb96cda8fe5c1d86d57f235af29bc18375b1286140c9019ea6ede98fc4ea314a0dfb88e952848b9e6ad9afa7a17a7fa1758bda1c23f7b540493a13bf71cd74609d001a15b541d783c16a48bd23040b2f94e1d254b7130ac80ca1643e587835bcdf6fba43bacf6ccf150723a3d72309bd05d390c8f555cd8f9f5e3a2cc06f4bb3c3fc9f3fafb2d72a63e07b9a3b35c4e8cbacc1671db5d1934556de18644133cd74f8d64d04a46f04bc6ccbc40d74ae64c2cc480d8c8ad4ee5f01eced1969fcbe32e237626c7116a211f6ee66decfb8cd8ca3e0e0c4f7ccaeb3077e76da45d0878e693c689c85b65d80f86a516e1ae027ac27384af353ab9471ba163de7e6332e7ab71c6a00b580546813697503614787c4c6f20b19abd758735a43099daeddc36cc925a902dbfeec10cf5038c6b23d0f2e5e5edb0e026028376249abd5fde5265acda5902b18702697097a8909fcef5bfc2004356c9bc2ca325a44bdc2a226761e8ff93b2dd65cc45fff2f322ece3fe1b2e79b455f7dec3f9432881d3fb0ee01f0774ea946236adc8c9df17346ae71c30db45f80008c3510baf44d30a4fcc1b1e6dbc26219da9f36123e465f93cfdee6213ac49236c2cea85f7b313e7ff8d9f5ef5fb78ff8d9630c1b1a86c9a5787d7d4813e508283ea6ee3bcdba5192b7e1e041dfa68405b67353926c42bebec6bb46d4d493e596e36d5e26bce71709ddf14c8274394c82cbd491885e171908af788cb3369c2f872cc7945e9f4e85e4254152445a44dbe2a252a5c9e5d9772d761c0bf8d4d0b04d24b69b21cdf024e08cdc2f94e83988d131c93fb047aaa328ac680962bcf1802c445a3dbb66472177ad5dbd4a0967dc3bb40de207e7de6083a9a907d01f42f818ac4fe36451835b9fc956ed1fd7728f0b61378d1397cd22c4f71a2b2486ec11b1c123d885a3c3858941bc33637fbd8bf437a71baf846bde7df8e73b054d84bea2cdd357e6b79c30b7d3479352f6d045808323ba26c9ab3ca84dd9a3a40330e763a703aa8f82b5acb32830e2b691311dffb21f420438ebb65fd947711ea6714e997776e2b20272d07bf3e7eaf08ceb4e25fd439c4ec3cb6ab9f75e8d1d3263efbe7ee0bb56a0d9d5c8aba0330e6e0a0545463bf727c1e36d9ebc2a04ea0f5498d554fd9b6b4105d25e83841a9ed5f695aad07ab0626ca16d4e8601f77c421f99f8e240cbfe58a56bdadd5939e798feaa6274d1de68badc87c4caf5f459dc75118dedb6d56671830d2b043ba3aad3c951331feaafe914a4427fe322cd12f10138d1c32d3069db0ce404819e6adf476025dd9e27dc2fb6c0fca037057cc2d144d64d0a630c29e43f71ce1c43334db6d8e3b428f69fd10a2122ee85cb32d435ac09f28e9a65d1e2d993ab5d2a9f89e06a84323cc0f30a3336a9ebd89b01f9ebf3b779254970e0182ef930f14eb2fbc45530053cfe0592a87f75f4e484c7934991d41d9d7de3886cf549b655432d4b9ae136c68e499105aa41fb423fe9dc3fac555b50de9b1fc734c9ce873b15c3a9115122efe36576ebf2ee3db9dafc0789d78ef58db74f520d716be70ff98a96a31a087e5880e9c67e19b93e57cb6b27e691d0d83280c33890ab35ed413bdb0d8f711b94e8eb2de3129a0b588eb50d2ce71c3f261021ee80f6462c887a012e04c7d108af0099414e781c342f25dd913e21a0847a77516ca65bcb021178c2d6b43b7bee636f94886c9f59e8ff60e5bb45a189b83fe11f6ec24ca16fd34d9b3e2df910ac6ae72b1ac0b96759437c96293b3ccdb5ef3ac805f76dadb3d041fd101ca9bd4881086ed070606e1ec976b5c6ec03eed8bf7a26e4e638b2524acfe3b743cf4177fc31c9f64f180494aaf9574f3913a0aa839ef769053ef96981f56a73cd2a3995613f9e707630be4cda2117801073e7c18ad22a548c58405b60c552304d55e7ae293f994d3df72b885d8cc0cc5040bdc0c71a2da948cae84a9f42dd8ce42701b30fad758eca1ddd000d1636b15b5a86bd98473f4e8eea49ac4f63436423e226e2f4ce339d14cb25cab6f2bc22313a7fca7ff9303c91ff1229e3dfba554fb3604a343c08745dac2e20702bedc8e23b6ddf0e64f48df98dd24e490b1422a5f3b2ccec6846d52826e1fb7cbb2c56a2ad1bc04399e7025c0c01e06de9abbbe26b557ca5018cbe514499e6e42b45a9a0a210bc14e6f87621e00486cb8c0f1145ba829080dfb4c93cf6ec836323523a47132e0f5f6c300116ff44e83bc078d0b2d05c6bca1656756eb089682e57ace990f5c8ca617a481ad7592ee9b03a7691ee1fd45cb04a40b4aa5768ced703b0e47d7ad74348f2bff6c3dbc5ff0039bfcd0423f7c03064f5faf23d091b3c6de3fd5a36798287c09a93f53fcae4e132f9e9532e23c7d8c83594c103df29c647ad8220d923ccfd5110b6df342ec81fc316b06a91a3d28c8195b9d9fba74aa85c6117256d6f821f55b42c214d8a27cbfcfa5d0b7170c4812fd53e1b55fc06430b603a72de502d2e5452ad7aa1f93651044d6b14e349e87ef746bdf0dae8099b14eea1f430fed835e6c5e0ff079b724ca6f7bcb78a417adaf586e2449fc25a377456fe225667f9bec7b473ed33092c4ce4c73655eacb79f667eb0131ecbd855ae5f21ea96a5b9e31c0e089829ea1fbcc357dc192a8ba4d38ac1c2cbfc37791d619e64c4c049dc496ded69e0a8dc58295745d80861741d343da545f1ca1f28179edbb9c2c5c6201ed2838761b6bd0a66701960892e6006fecde7050b0ddb993cc35f4fbe04b81e54d4da1cfa95d37e47ea1d951b5aa99abda1c6cd521c2f3a8b36f52daf71447d8aba7af57ac6170e4b0db2d97f749ac608b1d92ea8075a00d543485d034c33d4011e472964dfd94afc78d3dd13ec68d9d422235a62d0f8913cb90aa0466d5e2da67d9a0ae8699dfaf1e69bfd62c3295028f0c62775962f058d98a09a501fcd5ae5672decae65fb0f56378bcb7fa374e1a6a57f782a48948d95ba13e3a2d79bf216be20cbb5a05aa77d2721027cd41b0a0d53e4eaa9e1f9cdfff8f75011cd4248c5bc33b6b0f226267b75df6c",
            "n" : 0,
            "scriptPubKey" : {
                "asm" : "OP_DUP OP_HASH160 46155e53bdf765418da657f80fdc871be3692ce9 OP_EQUALVERIFY OP_CHECKSIG",
                "hex" : "76a91446155e53bdf765418da657f80fdc871be3692ce988ac",
                "reqSigs" : 1,
                "type" : "pubkeyhash",
                "addresses" : [
                    "mmuXCBvYkxUqLnguVivtZAzH1JKX2dtiBG"
                ]
            }
        },
        {
            "value-minimum" : 0.00000000,
            "value-maximum" : 11258999.06842623,
            "ct-exponent" : 0,
            "ct-bits" : 50,
            "serValue" : "02c803885aca957156a658499e7a795de74b234f61566376a6cd06744540ffe525fda50f4031bde11a45dd8507c6618e613420218a30de741ee8b089bd8038c39e1a3d544876b5f6d33aeebca3ffea39c01f6a2fb6eacee7965dc1758b3e5ee1e9f66939926dc0753e8f42bdb42f571a300a681edafb3fb32c1e466aa408c421177d9c7cdf8480873cc40a2622be602cfdf7473cfd3a1da80512e1e21281e541cc93cf1c039deabfd8e18b539c7ef11ad8d1e219d72bbac6df3170abfa68aefdfba514f0febfbd76fb1171ed2b176617cbac1be2055348409bf110f967d9093548c9b4777a250ca0d87bd9440bf36e87c4f5de5c57129ddc87cb8bd844c70577f515133ba17aa9a60bd4b3ac2e5c393a08f5db1afda3c6005a4710119c0300d5d1e219fa5328b3dbe27a7198b81837611493f1d2f434150582f77bc0d36b2a45ba81e642daf6c9c6e9a8ff56fafae877f1145e54c58df80e1c8ba32cc32837ee548ec43fb39262ba2b00c87d6db28d2b07a52556a6ea33158daaeff054b54534d0e477cba2ddd3799600fd0c17d414d87a4c334170ddbba861ddc5572ae633ad5b7665616855b44b44e5192734e9252da8b6b394745db07e780487803479574df0ac562999bae78fd0bb8f7b3bbeb66cf4e2fa7547d2cc4cf18385baf152bd701829b4d822484cae89f50b93685304a35c496fd04c8006cb5f05a2b8ea0f8ddbf99fe890e6e0debde2d71381160a01d56b654267721511336e7c9e8644cb4b7c87cdade9485846057f13bf74493897080177b7103efaf618456cd63cff29e5e635979fabb299ed1402495829cb3fe0dc2e139249458152d9f65f2cc79e95d8765b4e754260aa549467eddd5571a3d34aec015b02ee43432c183d58c72eddc71a917c6083c19ef480fca32920892ae9f976ed38ad92473b8f5b267f85af4392b0edc35a74cd724b39945681739ea8c7eb1bb0ea166afbd814ebab68ee1e65969b9ceca325609bad6bf6a0ceaddaa2241ea9c39da25f39a3f7df6c61c38abbbfa10ea176233205c94253b32759e7354520ea67e8067905a7cb8a492c2845a0bf94cbeca110b69a0aeb6b8f1aa963ca4f3b45cf772abddfbc0883c0f1c5a57af590e73250fa90613faa0516470b25bb42e18c70aaa8d826e3316239232e134c2f08912bd7d728eef8d8e48de2c36b1e2289b248e98afb6d258e6274d809937d9e7879513725e9b64b4f023cd4c696f3872275376afb8a94da149f6970b6ee8500b0002c7e509543a5925ea29aeab9cd0ea435da3fb102704f792159d97f7a9e123f5397e0a9281db4d46c914107c24c0dd958941b908ead60881ec3d705ee119170bf811e64fb908c514181d2d156ab6ec3c48665cbbc5ba270bb74b98b3caddacf694a56b461481bcb9767df7039a75c2f53bb5e3e09ff34829c65640341d2807f34b7fc0554ff1bf29c5502726f0ff6cd5882aaf39ad4e926fd3f68ca3a3f31e2991ffe38d486673560f70d0989f0e6a205d731281e1c9c636cbf5dcb02ccec74f2e3a6c980769e1339679886c33e1cf2f8ebbc6788f7876ae6defc4c208e385f18ba50912bd1de74ed476544537e3bbad2fe84bd1107400acee497d279b1b58b41f7a9ee372239eb57cb285b98db8c5f20ba7b957edce1a806001dffa095164a57a60059fcf0a3f52ceb32f9945be2c6ba538dc1374405df707c252824d6b84be2d345227c21509c8d34aa472810855dc59a57dda89f4fd87af3ec70953797b14d91e3aeb18ff611e20198a18af6cb0d4b0b37adec4c23326dcfd91d74d316e8eca3fca27afd94c0a9a1819f0eac7eb4b3d003478a4477628dc8ef64bb5b5df12248b189e8b55f64d59a1474cec3edf4859989a4c97b62806f87e6756fff9c2863e4bab457d4f66b30d3f7a379eb9312624177aa7337e8af484c0b75143e30a51cced0002843db13f979552720c9f7a39927d49bc93c7e5892b5f0737a1038622d2e689bd48f89f1be641de9e450bb7b0e1cc05e8229251657b8d82075e1bb27cb00b144287373fd9d3d880a5d17fc6d06e8d248b381c31348927b934bc746223a52b0f48b0cdbe079a9318641d0dd47f51f5bb778c9a7eb917a3116aebc2376af31a2282960ca037e9b1ba95f7ddd937bde4efb7e76cae093959ee1e56d136b6ae3b99265e8ee3ae6a4d85ad81478ee3e6194260dd96a17829d34b8df23fc29ebf5a6bf23dfe1f2935ed1834fc0e73d70d10af1f8fdeaf21e7417e6fd0acfef8f2d18a62d3a9d2f5572bea69e9f70e58603fd887c3e943e457cce250da5566f6dd10b134758897d210db78152e6a612fde20ecae397980f561cb5d01b1c0b97d6510ff5ba66054a4ed5a964254086070c5d3332a682303a430e4e6b47cb5563ae8f02b8a2f319585319787ae2d514c576414432b0683f20eef1db40136c71876e17cf87e66cf21ccb4deacc1a7ab42a122b21eb84122eb4792e1ccb920fcf7f2f205f517445fbb18ba24c78b5359e690b1952a6f6d6cb8c255c4d633aa864203428b615d0d80cf09c1de7ecb45b8396681730a3d8179978027d39abd2d5d76acdb2a187cf80a64b6326bbdc7e3ebdf2eacc909d7c3c8095d694d9e562bd3ddfc948fcc7cb520c27e4df537461aafd14ff24847c891ffa8868dabc44d278b55c7a9725763debabe84541eb25fdb80b77d766df8c2d6ebf3a605bba291fd5ac058cdf46cd1dedeeaca33cc170f41f489ae9e9f5a29213b3c62cb7f4da28815a604398f4aaf92aa8129d5fa5ce62d2c9157da136b05a6cfc7367ed84dbe83d7cf122b324a94dfa8461846243bd3ad8ca76dabd9bf673b347861fcf2dc1e42ee8b6154a50fc1fc44d63959a76e65232e722ab3f31131b2abba1ffd1a8b4f444c23a4c7ccea208f0f443807da511b107ff0511ff70c303164f41d74553e48ddb8244b3899a7124c9ec1552fcb37dc9772d40813b3f9521d554f345aa95afac01ad80c4bff8b9070eb67cd41c1edabae1177b4c8828ea5054c5414abbf4f56fe357037dc245b5fb97ad1586ef15940dcc8e485800672a01d935d14ec4b74a0a31c9d0c9fd8e6625cabfba2c44f035e238ea5a7c8def2e9e480173641eed2ccb9cede29c550fbfb097892f545fe9dc4f5afad82ba3f48ce2f182c510ca108716bff69a412af5dd1fece5b7d182ebe54343aa72d0ca7272e4ee7b0f31fc598c456a256d53d86ec9799d1d2ae178d52cb1fab405ec14656582661c90f123d8cf218b72af4290d812c938e96e1a7cbd04deaebbc12152ecb050d9ad043e7307611fd20a3d95be5aa0ff945860a9daa2261e07fcc9356fc04db2dc8b1326116635136b078903b274ae8aa6bac780aa145089d6081183b7569173f42e2a22124b92fbcbfdf570332733170c0639af424d9a5c7cd44fd36b1b40f0dd99914b34446da5b282c76128134acd3f911fe545cd179c0b755b8af48323978da9a5c8e0dd35c07901093cfaec5c2d02a3da748adc7911bb35d89c00dd5c6f4d6ba01b74b5a80e07d26c7b23b764f1293003cf6da18af4956fdb27a9145c5fe9712cae78a2aadf78249937eaacd0784215bc8fb3b98fe4e1305a1ddb0ffe7e44e81187c5a8bc50e7c06de46d3389240791bd276e81a907aad62c827882e032bdc711fe1387d6f045b21bc8dbb5e74b978e85f7a7484ec28fd49b5c99af2ecd3b05e8519544a5d8c4bf4be99071cfca0e261ba52d4bb36905816e877c9efed9efefeec7efe35ea1c719850fd2758a8c0b75b16058dcd53d771e9bcd081aa290d9f6cecc5c02aa5c738c1a971987d3e7ce8cce5b4766fe9ab861996ca25b660557117c1d47ae11f30be58fd7e95d7270a17dfabc61618fedb4533fa1d90a84509de475fd43879101e95aedf5dd1aa67ed792392bf7b8fc497511a1620b48e00c2d5a42b2e353a8e18d23860af3adef888eba03b06d34a65d364d43e32b959e960732a9f8c6561570bb2fd970efe593e1c231d9fa47e18c5b91276909ef7644a2bcfe77ae47831b2cc2cbd6267c627aac1e91e5f8c73ad7cdfd54516822354ddab7df72022d6679a3667b6e49cf2925fb8eddf93d9be2dd151bb08d38ac92fa445248b1a117092a49d16fcd5c02552aa2c87ad1517fd755e33b2e37b5dec7050eea25699f2ee248e2708afddfe5203d2727db277c6a266dcd1558392daf393562fe16a496996c81eeee2a3c55dd4533db5a478d9bc13ea7db2b438cbcbe5c79d74e86e3ddf2c83fa6ea2202f5e41406505756827c269485fa84c3a81163fbd1144dde5c5cac27489ae4b8c82ed6069cdedf64cc749f955e4f56f32c40e6e88ccff57527c7bda69e8ce7507e9dc29aef0c2fd0c5315a04fa986a93b890bd16650ff6f1d857d5d105290f90cc59e0c475c95d7ca01a6dda61dfe1ebb1479aeae871fd7abb4f4467ef738e54cff8ad220a1e5bbf7dbcf4fb37f236122ef1582078e63bf313077ff843d7b634ef81c47a6be3396a6a327657d640e37e73f4dc0abf95ab77f51eb6bbca179fb7872db4555e8038f038f7575d0b39ee08fc7feb225ffca53668963a2296d1740c696a0c0afa76a59575df356de9aed383b6141158048fdd783c68283872a397ce61a20758bfe04e6715e58747a5b13d64f60e5c25a4522f7fed0cac9d8538d5073286aab73c042057d302e5431b2ab33cf574c33795f51620d8c9e48f54843ed585aec35ca40ae6d8d9a2ddd2c2df6a441ffd9301fdec1a8ce6de0b98bc49fd367def26f4db33a01f6da076d6208a53e655424574e45668a1917b43d591c1eb8c34a1ffb1ca33439d37d6271b920e735b7339d55c1b0c265b63b18c53f1badd8d4ec152eac1516d8c0fee6b65407e4b3907926f32a175c92debb9038936e50fb23184bb378062ff0b20198d2ebf0ac98ad317963be03f6aa1d44dba46278976bd542e62fd8c7789d46124a8c40e369627881f7d8fe03befaa50cd7e4ef2386a40137bb8ceeebe6cf853ad3a31d12f58b15d1c1e32f8f79ab448f1e2eabaa3dca8b3c8f0eeb2cee81e534cb6e0d999c387ef8fce3cf3af8742a9c01b85260b3839f730516a8c125d014839645450b211bf013c9f0872b0024e4416b6bdf73f9c5967ea056a3f982294297b5c1be67a00230e0ab636853bd58a3b81ea590c217bdb8d4600f3ffb97fffbf14934132fae1ed2379b980d5fcd4d20199e8de7600fade7d3e9a0b42f1664358383a2108b43540e450c39dc5dcbeb4e0d3afa681a8fe75eca8b372d3952608c7f7b37b3e3b50f7a82c67d43f5908066a26c5b08c5053644ca5388b7e5cc8521f257b31064a728b1b27fcb4b547855be9b71d2c1a1b1092cfd0144e4e37b303efdf231e87738e4ff6992e4c1befde3ae4487b0c1a4eea18ba80b650de0909ab91727b6cec9de0904b5dea6f659e2c443569ba9211d76d83cac048f3b76896bb1a10f8cdd2935b8fbbda49545f71f6cd32fd7c6e874a294ec68b18601240bdd1af66c27972b30588d98bd0347f2707a8befb4fffe8ea3ebe3ea2ee6066a044f71b25ac0797cc537063eed8b8bc40f6a0e5929c870a89d4eb495ef6ffc50aba653b54e06e1977fa1f935d5250e650544ddd33dafa249ab76fbb555c7ab8cd05ff38332489ded5705bb451ab5df0792bd2e90f23908dc956b7cfbbe34d642623a5f57cd5bc4eaf2f97fc4ff1f5ecb11fe376931eb2fd6b7ae6fe8df61bfe3bab3b425e210234bed4dbcce45b37b12d4e5cf7784fd46807ed51dff6877d987cd85677b8d955",
            "n" : 1,
            "scriptPubKey" : {
                "asm" : "OP_DUP OP_HASH160 4040ffe3d17e69df24daf28874d3e8e5d100461e OP_EQUALVERIFY OP_CHECKSIG",
                "hex" : "76a9144040ffe3d17e69df24daf28874d3e8e5d100461e88ac",
                "reqSigs" : 1,
                "type" : "pubkeyhash",
                "addresses" : [
                    "mmNhQacwRdADcCSss81Qb4KtU7q59CEjDf"
                ]
            }
        }
    ]
}
