{
    "hex" : "01000000014a53226a149155c6cfb99c8fed9dcf22730f300aa4e8b77d5103c303156cf330000000006441d906d0a26023420b188644bee8315b8d7c3a8cc02e369d36061d518df70f7e00dde3d3ee18dc1a8ab1398f18d8cec5db820d2936aa5570631ee061a279860b8c0121025e7c322275ae7fef7899be95bdfb39d98cac871ec320c371b59db0208a754f0fffffffffa81b000000000000020255c48305039b0a31052fb5fe02cc6d8d9a4df88538d0433e7397b907c40766effda40a4021ac707f40f60d7afdc33e22a3700dfe8ed0b4d82a1ad61f17a85ca3af299da575fbc194c862092e1c1e860859899a2c3efc25cad92381ff69bd6047f3f37d2b5b63db98f0661a573beed88a8e5152bf1e4d593680389546536328644e493452c6d399f27b3c8a6b582970b7ed07392acb6cae19e44ad1200e3f2ea158517e71fb3c9303a251166ec4bb110bebbb15ffd67c7ba14ed5689563cbf922bbbf12cd979f1e37e463ec8cd0ebc1ecaa03fc106bb2d6f361697eb4c071434c277c90bdb3db1818dbff9c7fca61928c87cc0bf0c0818b9eebfa94ac823e77905202cba14f13ab57b80d7a75424f391cad93092d2d9a7d99d471bdf5af0668042a0945dc302bd23c86fa0d3dc32db838a2e7ccd76156613c83530e1b257d2d91460906a6ab6aff1323c4c9b566822584bb60ac304299e3fce84c64f4d89aa11e16e43a36b676835f5cf8d69d32781a1f9f39134084c8106dae6ffd54a5d528b1583ac3d8b69a2f76fa92148d1f3a01724576c39277e89a57f8d907369a0071a3caa95310208a98e16d912e8b28765e4b185ba1aeb73ccc0bd849ffeaa9a9f03274288a33362946b708c866c8d8a37d7f8da31264b941dc77ec4f53a04074cbbd93dccb58960a96b88cac9cd8e0fecf6f359ce0d9b2fdb048bf0d20352d10fc22a878195c283d943af47b5f283c2ce85bb1d340632c90f0d5cfb91bfc51d991496a53d2372f97aa370464805759db2510bde6b9dd0bc7cd4ded7332012810f4e1806f1fff79d1b4c94a004d44d4df884d39c3efa7e359d3ebc3bbcb2ec0fed2fddb20b14b3920eca544869ca9263ba0fbbd98ce9ab4044c060c51842568975aab60e2f24786faa2f4a7cb0d5abb436bedc6295dc3df83a646b32162cb3b8c2580e40e68c85cd256e64141664aa3c74b09ba89b78842fb44df6d3838ec92966f81a48786791a2c8f2c5ff0d964770c168299ef0ed9894bb3d1a09d319e8b99b1ef025c6f5195bee4bc54ce59c309254744b21216b2bcea69f28417c2879156a364e4c0af050241bc7ccee792c7f0b966a3a2fbbf7394f519214adc3f8631090f904f0b390b8c352878c687b5dc9d3f7359ec78befb74c7045676ea59ff7c17712bcd7781edc489d6af922f29efcd6800f22f79616bd873498ad1a03fa02e21f6e7be04f9f81d530a73edf8c64a86a883328aec1abb877f395538ff3a95ae3a45462a2bdc82743f720a7099db88280ba67000c8c19986a9526336977a2be2faa3c78c3d274879580198535d6741db45ec29af577bcbd4ffe03eb083c0b338085d37915d991a13bd459760293cb33b148524616bcb20af96cef2363dbb2dc24e3ff010385d4ba4f9e56b64f4747136de43f5c8b2ba4637dd88050bbf75b86a6234f59ca3b6002976f5871be5ede562041527529423199d00540c290cc45b559199d042c094b309751243d829fdb81985aadb0cb95e563d7d4171526c47c97a3618b93251133aca3b48e65e904a813224329ec89d9f32a04e7e58712a3775c9e80cc3cfe7961eded8216d5e6a14534f9c1ec27f30e74e95deccf048da18e441670d4cb089b96448b67241e321c1502525277332f67dacc99dbf8beb88844870da10eecc4064e6cbe3f4bee52ea524e179e4a18635b0ec950737fc382d6562a07c32e16accb4378b76190c8e21022f105d4878e84323726bff88c73414f255b2e19d837984cbd7b6b2f73ce4b56860f4de01cafe28dc55bf8af028d540e5f08b5a8cb64a5fb9c1701122c8333fabb297c630a8d831650bebf4feccfe9c24d79c7079097f4dd28463ac90069c67993e9cbee797ed2113bb831cbc6f2bb4360415bbde759f9d1023b71a539cd334f28d6aa88a7358e45d022a11cd2351b0f2729c5b7e314d085256f74bde3501826a82ff246afd57c44a7c4719233a5a8d010c5a5d10e413c30b94c0bacf0d58ff230d0342c2e5f9d15b1f15fe090df69bd8e5e6f15df546cf0d1f8fce262c87d7f7cd59f31897a9c7611f54ad477195177af0855577a819f660873eb1f76dd3078b84f06583cd88949cd997138f61d1ee9566fcd85779f9a114059a94db9bdfd202ef096808d90bd26c3294f3f8bf6b2b550c51b8ceef318a0bedc626f7d0e3a351bff8c762d81edf6a206b87ab6ffc2aa5c396748f472268dc59fe85df410e9bd86ea503c6ffd5b5ece6b3c44f2d4df9e2e57e9499b42c60d14e10344ba719f5ee6ff780e6fababca06488c86e389cfec0dcb3f9174f42b80558a876dae62563cf009faaa4060f3c0050b46b2a8a44becbcd4b65b582fc353244f651b1fc3f7dc72b7d7e825837e0027da177c68995d43889d3ba2a19907b3cac4b32941f9d957a0ae0fc1e4ef4946153df2f9a20b922ede32935830481d732f5960cbcab1e3584facfafac1fe9bfca7bd3e8b7a5928af9e45ec2363837209cf7ecedb23d0a1891812f6b38c1daeddc0d56ac4613ad24f400459511aca9b1b29634b413ce6e9abe275a1aa11d5f5295744e4b19505fa273f16615b98b1773c928b370477a143b1a9ec71e2712f4f0132fc2efd9d0673636c524f4df9182de2fc705c510c00777e93e8cac9a6ba8d04e2ed1437e8a1fb707640dc7191e79116702a1f614160d1ad4e785152fbc0040d2a738c6f5c7f965fc6893c7bf50807a2c910dcaf5705f3f679fad4d4b180e2b594c0ccce9a88d0520f4c891ac774bc65896cb43e6d37560a274ff3e6400576ab3b24e31e8856db7097da5837d8c947cec8e900b86638f5a0a4fc8d9e6946ef4169bbed5218076a4f9669eb082a9d2931925996e6faaa80332033cebdbf3348cbc920ff2c70e42ac315f0b3d66985fae64d7454812191f68462221295b9ae3cbf5c4c64e16fe965bda6f224ba3f57837972fa4b640934a87344c6c9b532ef6ec4bc1995b84d989d214b1d6bf56c465e04fb161ef6fee305c379f000880507011f9ad3c53bb91e7cee1cb34868445bd6a85f87a141156563230f86f97b2eaa63c0696a72e5c99d65dbae27025352da4adbf7c33e8861d4fa899508c77e2ce3ad8f6f6a30b790948dbf5d7785afd8ff5e81908fc45aa5b69821b87f92e6c15f7c7881bcfec8f577c154113b1aeb7c2ff621f4a60f8b26915ef1afdbcc250237d1890ce1ff4356a059007cf758609e0b5161bf91338064097e2156ef80525215ad28f0bd213ee09c6282515be794e6f2ec05488c18a21c988f7042b79fa7d211ae338fffb2199ed47f9da8d1d8aeeff68650eefa99dd5af91e69013e7e8fc1ab5372accc4c8a71f0d71cd382448806165be52ff89e378cd124b9b366c974b67ee0ad801e6e3468563f31b20f3f9a60adfe8928d9af88c354b2601ce08cd7fce2f2212cf1f0e73328d43d7b8c10666a9b1d08ba92169bafdef243548fa0f6f7c3b204377a5199d8bfbe1006d5abdb0bf15856285e2a5fdbc0b0cc41a4bd9ddb2f20da0a3a1a32b93fe4585b6c2b1d4a8c2c086554b06b7d57b724414e7123a46cfe68d4069a35dca342b0aa9acb50600d7d90cb478befa2abf0d9e73ef1dbc9330ed0c4a7362ab1d7d76459560ed00d11bdd563fd98f97a6b94bce807733197c8ae85e5485a8f28fddaad93e5ce8a59dd774c8cb80962fe292cb8c54073704b320907e3e116f522ed8d95617389b497434d14ee3b236b201e36dd988ad1a56f8de0893318fa4f35a244c23df806717740145aabe6d9f18762498b8e3c9460ce235dc774f93c9ad28536af2a2279671e34733f755d022728bb99bc51f59e22ee51e8cd6a1e94adfd5eb6b91920f8f7ceb972eb55b3bbddcdf94de71eeba093a2423592c3360491cb1dbb496d8b4e3d4fe2c1c27ef8b4fa72103bac2656b488916b26dcc219697ff71c8b2c8dbdf0a06678df6c1cefcf5c146cb1976a914e1054893e5c3df0b28a62863987c8d560e4eb1d388ac03e8658e7e68f598a4e174b695fd08b240abad737f488968b8ade849dc0eb9c4d6fda50f40310093386f245eb10451a4365e9c88616626c307ca90f1310878e959ec33f97a20829450ff00bca8dbddbb61de44b450185c21eaf9f7fcfdbeade3cf03c27a297c923547cbbf07637978fa4994b1c192cfd455e60151763855ed607f2332e7d9389ce564dbb22e30b4cd91213e1a5eb916d5ec48568c8919bcabc7c83979754234968708c47b24bdd4c825aec3a42163d43a5e49992466c9cdc7171ef2f6608d0ce94e2a8603d7146dac35ed421f58a587707a4da9e6b76445a4c5eb8c2aa0fc72d33798b5e9c4cd6efddd5912fc74f10c37a3787ead1af2d0779dab2b1e8d95d09289ae5612a2ac0c50713b24e2c968869eb359899766f84bf5092146350b2c508bf444c285797dbb5b2cebdab2e1de9bf35864e0aeb40007343a6f4805a8894f8cdab6d1621dfe183f25bdaf6f4d205063b77a37202715f905648b0c7f571af93fb557ab5194c6361fcf00fe21f539c87fdefcb8e88b3734beaea5dad420c941a723ac0ae1f6730ad09468ec3da7bd6d716b7a80eb1b61c3e88b8b7a86a9e4fac9cc49690cc60d4025a459d5544c50c2ace365ac0e34e1572c03f7c329dce1a5ab6bb01817788cc3e0c96cf4d2df420c806a0c001d631fc7fd1d66e64dde76a605e37d1792dfcd50dbddfe1b3111cc88f6368720e2763dbb01cf6ef8cb7cb11d4c70b429bbb4d663c2568c9a4100b34df3aa07cec38055772aa327ec62da7843b8555978ee5a01078c2c2a5df0ada88f57f4f113a2e3ecde0d84574ef0d24fb6f5809d684b4a211a94bd7590b513a3dc9bd5692048b0e923c3a7ca610b3a1cc702730844edbdaa617bd357e8305aaa981b19877aea67aed1ed1136e3641bd9379987a6a215804bca60e7257c24f13f1eb1447d0ed076c9d4a81a7b399add6c9a523a96125ef7aa80c96756ca9182dcf4cf447b7ceb1430a897a3352762bf62f1143af29fdfd89c009718fc7d787af0111479f52c9ee72837e842045cecfbe78969b6779a2e17e2295651021e4e82e726c67067504ac42fd2eb5705044b58a9290bfe886247f9deb2b24896b8a8e303e56307b547f3d4c36515f65297dcce732b81fe251401beae678fb72a6e4d5580594ccb1ef2dd7a3bf40a6ef2b2ff70de8756a53a55cc3ae1aa4d04f1c62982b282d00b53961a2f502d1fce93c575a16a0745931f297db27985792891fb07bdd1fc11dfd7c04be87790340aba442eb348d209176f89090f0d018bbc878056f14a99a99cae0efef5760a20b3e54b8d92bb0c265268c0a22c86201560b4366c4d17385f5c59cec12c583426b41b39f5952eea2513b9d4bd0a73736c0ba3f0db828d806ec4a4c61098b8c7f5b190081d8630ea43b418e176a77484d861f9e600ae428a74e5a44e1ce6f363d12736f643f1f668e907d4cf0f1082219cb7a8898195a9985d4230483596d60966d4cbebacd436ce2e73664a83ad2b35b52bfdc021fec81fad29c6b266e596446f1774ca5d917884f1175e830dc730fec3b789664b9e62ea08ff140576452a822525ad3b5ab4acea9b556b818713097fe2070b07154f1dee7d7f56897c0ecb47ff32b28185a02ccfa7f17573f1d742fb9db7d3961fe066c7c3d791e05395bc151622fd65d7462eb72dea8ad5c9db9b8ded743d20588840cc0fbb994bdfa40833b606b3a159da8b76c18c3734eef0b360a284a9785c099db6d355b8541d2e7a2a8bc9b01295057f5007bb2757f311f074174dc3e589d315726f6fc905471fc205dbd1847857260a7bede5de658da7610c243db9544073bdd8992b964bf6aa8621765acffb0639977ada7b539b19e59557960f812d3fa7585b95f9864477c356b8728ecf1e44b1c35d7a418dfeeb3773fa2d614500cad0ff0ccd9e904e0b97aefc4a16f691f5accd1f7ac9657d2480a4d9dd6c5648b67e6bcb3a6371d57fbf620b446657e9883b41ee6a24cf4355e172a6461c1d568f21dbd50fddc3cb76d33bb763d00a09e3e68d8393012851ec29f38acda18b0339111d18f20946a5edc7bd68dc668930a64488e62920c5d8bfbd3296d4e91da36950e2954315567a772527ed154dde863e230ca4f57957fde3c91354df6f46acadfc0d9b473321c3d5c3d7288f8cac805bf59f9b89b2b766de5c0ae0647a3d12aa59026a4dd89c0a85c8677af8fd1b9ee1bb4426bb73fdf8acc747d7dd47f87b402b97f410e675cf383ec92a65eb00b64a02b6000bf41fe0edf7de5419c79eafc02d20916c52286e24d304625bcbd98c771202f20daca36d4ba6539470c3d3e4ffe7ef05589e7dac5b8e49b6f4bd4f4ca8ad1595775a03be79b562a4bfa537ebcef5ab098ffe55b89568464a54c797af00160c424f758a344dad1db2adf0d77ad3d064d4c9f3f936d5f5234f6968a3f0da6492122aa98186c53c7b124b362c6e3463e07ba0311f771bfdb67b26f68ece8358741791e50e96fdc539e9c8938925190a1a46a0fd1507da8bd6508c924b31c8848d330c55766cd576d04478cbafc580bed2e90b5139a7b11784e6795d8e5b33d118776af5423116e65cb19d5794d0f19baf38707571bde97263a85888097a990ff968903575a13f04405fa9a32339a83eea1ede6ed96c80c90fd5fb6b9dc8839a492997d22a85bf006f515deb78dbf0438d4ade16e2276e34c7d7de51daccaa544a12f5ca0a0e3e852d11501f8cbce76257e4f5ad9a60732988b957f504c49f58d77b6b868cddd6561b361f8ab67fe4ecc2289bd774df1458ce0ea6bbd7a62416f8798c74d897202ce41dee4b40d6371d963b32ea011374e95fa57399ef2614fd60cd5c908ca11d90de96ef975c4e258736fb0e38219b180be5fddf51c306f19358ce485ec0d4826249cae96c22c7ce1ac0873a669779e632450032c74b9b055a47ba3cd902dba30439f8abd67351f14ffef3927b4e1a1886b95ba342bf279b378e87bf63495a116c13e8b99760cdc01d0e4c1e3ec49f241ac41c254aea4cff923ba73332f2aebe62ed1fed726a4c8d18395c942e41d90bdbcbd546c89058287bb0aefbc65db616b6f515b2f322ecf8998040ee1ccfd0f2c7901946ed9b6ccbc7a947301e54d4b38b70456455b937e03d6692976bfad2ce17d73d3ad233f05451e614213c2f594306a38061a82d6f1ce81950007276868267c28d4697011d0002d2a1d721e1768ead5cafddd83b4b2fac7dcd6d8c8881c5c7a9a17a15c70e3f439f8dad64a339419d8409dfc5e6c3ef210638c4be5b464c6540c33aaebca7f5d093a9a91bf6d4eee5d92b9b130897d079f21ed40022339724ab930abafb3005fcb939ac4118defd042abdd7dd7565b6f2d1ce330b8c8b727521d6665434d00787db6c9f7a3b9bc8bd994127330bfde192753a886f613a6a2bfa537bf681e3d93bb7e265f92e647560ce7ccaf4a5df0bc7ff35eaff61a489de9e1270b4a46bdcbde80c90fbfe5870e08a181c3d2d6285543b5ef373812ad750e04200143100c4fd7e54e4e3049615c3418b35be0b742a985981f4ec5c2c03588903d5432b3617bd32c45885d4e751630626bc5b362f06da899709165a80d82c3023a1ccd9f36dfe4e5d3c000cff2f8e95983172a97d41effea1dc4ff82d536913e5c279763d3b97802c921dbdfd2d4b5d9ddc29e9a450df86b2dcecf4f8b6b3eb68a685ed9aeed75bb18bcb2c79d4285d6c4bd70624ab339e9dec35dddf3011957b25ca8a4070641e121b8356fb4622a5c9eacf1994d5b546553e87c7d7605423868d65c5cea9f8f2bec3e0c6e988537adbe7246ba0ba42a86abc5c37d751c76ae14b1c2146079a1b10e1c41e4b049fc5bfc4fdd56f23b92418f5d6fa9e0333e4315cd2455ff3bb526835c9b4a69282487cd56942c91daaa1f496bdd765cb41755220147ca699e4384f25a1a5eb7236c87bcb59e2d542097fb93151224837f60ea321110e33b1f5e2e63d9249cb5b504cdecf6208669beaac31f57e464f582862aa15b6753772ec4b085c99c96df90271fa5f3fde9f71ab8ef1364121f48aaf2acaf529261691782637f61283d0e1f58ffc9c6010b27952d405eac417818a1b20f6c00d401a7a7d9a6171032f949d9db7d36e67a2229d8676facb8d026536fdb34816cde70de30bc8a8cb90cd47fc55692bfb3a20de0183542a299ef055e1179ed9b5ffc42ff3f87b29053e51f47dba1c5fe903358466a77837612d35ba6071ce1ebe5957fed93ab6f49504094eb5eb38b8fa3e5541747c33c4cf1cf495dafa1a48b10fa504eb045898eb824143a0f3e03bf89c6e8fd825e429e3c489cebc6ebe81870888652e29451eb1b85942a3cfd2f74e84121016dbcedba292479e5f42f9bf463058b8b4102d973f5827f3068b7e9cb6fa83e8ffbc6f0409dd0c53f381c81ead850286c3ad85417c4baf033a99947523f60059572eff0c6f0d37ab4d2078451c6d9462c274316294317bc5d293ce67eb2ac058c78bf8991b6584bf2ef4edc0cf39bc797417307ccbc6a97600ed218b84fab0d8c5def5902f2f05095b65c0bdb4fb4d355bf5f5c8bc338d36fd3e2db8cc49d18e1e804cd749c44804d741954cf81ae01b3cd891234e8ec8b07f90ddfbf9fde54bbf7e7ef9b7ca6713ab4a97f63b1e8c17a373eec6be961cb4688276b0b9bdaf61a51bbbb75bc35320228131d31425fc827a68ebc8b986c8f8bab86abbccc596f1516ed2ba750eeb400e4a35196fd684fe78d494b1809d6ce2ae46ed6ed7401d0046cc113422bd70a77f5c8d194c9a8a36ed3ab4e08b528ec9543a70f813f6dff44c3fd6b2e5a4b0e58694ec80742dc239f3667b89f08d83320e1386512e5df801efbeecab9709902b43a8caf2dd0c8a6201396647358eb16f9904fe67f6cbf06ae531bbe951f67e4e0a689209109692e0b0314b9a6edb8cd750f36fef1fa8eed9910775a679d7e08ff03f8ec93db943572847be79ecbf5ec84865dbdb9652a06162d4bc53ec183a78bce9290ef37487b8e00c07ce5bebb051e9167d27c486d41e5366519517bdc028ce07c59431e29386b9507ea911337a6498e774250e6adf39f3d76d2d2669ba429aeb7d0215dec6da39ec79e1fffabaece912932fdc1f96f21d80a325c7820da366b785236b204231d558d420960148f25c364001cb66dbf8d6d470f1c8e3a24dfca86e9009d63c69a31d9d8d49dfee658ef303c866fc19a88ac6f6f86aa4e69c06f38c4fb3ce499967aa9fca13894f4439b5c81c7c308e6020bcc480d3720f2aa92d10c062a15785d8461779d2c713ee8cf64c49f775c65b73be35fc88b12aed57df83cbdb069a99c9106d67b8cc48e799004b7b49119e6800f3b7561e608dcd42ef7f4762404fb94c74362816b0d8239f90f8ee4ce3043b6fd38e222513c5469eb95c037f1b9e40352063043799845a937f5e485ec7940538993d4161ea0c66fc094b8354b98309217c28af5c9cf44b39b00e7ff640471e66cfbb087f832c13912c28e9447f532d11e2e285484801d656e003544a750fdfd1b884508fde5e3daeffa850a8a407bd23fd9a1561b3ac6eee725254e336ef71a31f8ec14fedfe85e874d34bbdedd9e53367858a43c286e1cb410fba34864fcbe713e0943e4c52de4088e6ffa59a98576f5065028935418d68494f4ca3766bb4b025aa10bfe710886b19ee2b12721296b5b9da292511ff21039e3df2cda4d6beac2f3e4e71d01c7677e0f3fdb1cb08d58f0530ce6e1d90f77d1976a914d6257982e9156b11220c18c07bad1c0730ab5be388ac00000000",
    "txid" : "af620709d174bf1be0e1ccd54dd138a968b80eed0db85c30d375c368e9116546",
    "version" : 1,
    "locktime" : 0,
    "fee" : 0.00007080,
    "vin" : [
        {
            "txid" : "30f36c1503c303517db7e8a40a300f7322cf9ded8f9cb9cfc65591146a22534a",
            "vout" : 0,
            "scriptSig" : {
                "asm" : "d906d0a26023420b188644bee8315b8d7c3a8cc02e369d36061d518df70f7e00dde3d3ee18dc1a8ab1398f18d8cec5db820d2936aa5570631ee061a279860b8c01 025e7c322275ae7fef7899be95bdfb39d98cac871ec320c371b59db0208a754f0f",
                "hex" : "41d906d0a26023420b188644bee8315b8d7c3a8cc02e369d36061d518df70f7e00dde3d3ee18dc1a8ab1398f18d8cec5db820d2936aa5570631ee061a279860b8c0121025e7c322275ae7fef7899be95bdfb39d98cac871ec320c371b59db0208a754f0f"
            },
            "sequence" : 4294967295
        }
    ],
    "vout" : [
        {
            "value-minimum" : 0.00000000,
            "value-maximum" : 171.79869183,
            "ct-exponent" : 0,
            "ct-bits" : 34,
            "serValue" : "0255c48305039b0a31052fb5fe02cc6d8d9a4df88538d0433e7397b907c40766effda40a4021ac707f40f60d7afdc33e22a3700dfe8ed0b4d82a1ad61f17a85ca3af299da575fbc194c862092e1c1e860859899a2c3efc25cad92381ff69bd6047f3f37d2b5b63db98f0661a573beed88a8e5152bf1e4d593680389546536328644e493452c6d399f27b3c8a6b582970b7ed07392acb6cae19e44ad1200e3f2ea158517e71fb3c9303a251166ec4bb110bebbb15ffd67c7ba14ed5689563cbf922bbbf12cd979f1e37e463ec8cd0ebc1ecaa03fc106bb2d6f361697eb4c071434c277c90bdb3db1818dbff9c7fca61928c87cc0bf0c0818b9eebfa94ac823e77905202cba14f13ab57b80d7a75424f391cad93092d2d9a7d99d471bdf5af0668042a0945dc302bd23c86fa0d3dc32db838a2e7ccd76156613c83530e1b257d2d91460906a6ab6aff1323c4c9b566822584bb60ac304299e3fce84c64f4d89aa11e16e43a36b676835f5cf8d69d32781a1f9f39134084c8106dae6ffd54a5d528b1583ac3d8b69a2f76fa92148d1f3a01724576c39277e89a57f8d907369a0071a3caa95310208a98e16d912e8b28765e4b185ba1aeb73ccc0bd849ffeaa9a9f03274288a33362946b708c866c8d8a37d7f8da31264b941dc77ec4f53a04074cbbd93dccb58960a96b88cac9cd8e0fecf6f359ce0d9b2fdb048bf0d20352d10fc22a878195c283d943af47b5f283c2ce85bb1d340632c90f0d5cfb91bfc51d991496a53d2372f97aa370464805759db2510bde6b9dd0bc7cd4ded7332012810f4e1806f1fff79d1b4c94a004d44d4df884d39c3efa7e359d3ebc3bbcb2ec0fed2fddb20b14b3920eca544869ca9263ba0fbbd98ce9ab4044c060c51842568975aab60e2f24786faa2f4a7cb0d5abb436bedc6295dc3df83a646b32162cb3b8c2580e40e68c85cd256e64141664aa3c74b09ba89b78842fb44df6d3838ec92966f81a48786791a2c8f2c5ff0d964770c168299ef0ed9894bb3d1a09d319e8b99b1ef025c6f5195bee4bc54ce59c309254744b21216b2bcea69f28417c2879156a364e4c0af050241bc7ccee792c7f0b966a3a2fbbf7394f519214adc3f8631090f904f0b390b8c352878c687b5dc9d3f7359ec78befb74c7045676ea59ff7c17712bcd7781edc489d6af922f29efcd6800f22f79616bd873498ad1a03fa02e21f6e7be04f9f81d530a73edf8c64a86a883328aec1abb877f395538ff3a95ae3a45462a2bdc82743f720a7099db88280ba67000c8c19986a9526336977a2be2faa3c78c3d274879580198535d6741db45ec29af577bcbd4ffe03eb083c0b338085d37915d991a13bd459760293cb33b148524616bcb20af96cef2363dbb2dc24e3ff010385d4ba4f9e56b64f4747136de43f5c8b2ba4637dd88050bbf75b86a6234f59ca3b6002976f5871be5ede562041527529423199d00540c290cc45b559199d042c094b309751243d829fdb81985aadb0cb95e563d7d4171526c47c97a3618b93251133aca3b48e65e904a813224329ec89d9f32a04e7e58712a3775c9e80cc3cfe7961eded8216d5e6a14534f9c1ec27f30e74e95deccf048da18e441670d4cb089b96448b67241e321c1502525277332f67dacc99dbf8beb88844870da10eecc4064e6cbe3f4bee52ea524e179e4a18635b0ec950737fc382d6562a07c32e16accb4378b76190c8e21022f105d4878e84323726bff88c73414f255b2e19d837984cbd7b6b2f73ce4b56860f4de01cafe28dc55bf8af028d540e5f08b5a8cb64a5fb9c1701122c8333fabb297c630a8d831650bebf4feccfe9c24d79c7079097f4dd28463ac90069c67993e9cbee797ed2113bb831cbc6f2bb4360415bbde759f9d1023b71a539cd334f28d6aa88a7358e45d022a11cd2351b0f2729c5b7e314d085256f74bde3501826a82ff246afd57c44a7c4719233a5a8d010c5a5d10e413c30b94c0bacf0d58ff230d0342c2e5f9d15b1f15fe090df69bd8e5e6f15df546cf0d1f8fce262c87d7f7cd59f31897a9c7611f54ad477195177af0855577a819f660873eb1f76dd3078b84f06583cd88949cd997138f61d1ee9566fcd85779f9a114059a94db9bdfd202ef096808d90bd26c3294f3f8bf6b2b550c51b8ceef318a0bedc626f7d0e3a351bff8c762d81edf6a206b87ab6ffc2aa5c396748f472268dc59fe85df410e9bd86ea503c6ffd5b5ece6b3c44f2d4df9e2e57e9499b42c60d14e10344ba719f5ee6ff780e6fababca06488c86e389cfec0dcb3f9174f42b80558a876dae62563cf009faaa4060f3c0050b46b2a8a44becbcd4b65b582fc353244f651b1fc3f7dc72b7d7e825837e0027da177c68995d43889d3ba2a19907b3cac4b32941f9d957a0ae0fc1e4ef4946153df2f9a20b922ede32935830481d732f5960cbcab1e3584facfafac1fe9bfca7bd3e8b7a5928af9e45ec2363837209cf7ecedb23d0a1891812f6b38c1daeddc0d56ac4613ad24f400459511aca9b1b29634b413ce6e9abe275a1aa11d5f5295744e4b19505fa273f16615b98b1773c928b370477a143b1a9ec71e2712f4f0132fc2efd9d0673636c524f4df9182de2fc705c510c00777e93e8cac9a6ba8d04e2ed1437e8a1fb707640dc7191e79116702a1f614160d1ad4e785152fbc0040d2a738c6f5c7f965fc6893c7bf50807a2c910dcaf5705f3f679fad4d4b180e2b594c0ccce9a88d0520f4c891ac774bc65896cb43e6d37560a274ff3e6400576ab3b24e31e8856db7097da5837d8c947cec8e900b86638f5a0a4fc8d9e6946ef4169bbed5218076a4f9669eb082a9d2931925996e6faaa80332033cebdbf3348cbc920ff2c70e42ac315f0b3d66985fae64d7454812191f68462221295b9ae3cbf5c4c64e16fe965bda6f224ba3f57837972fa4b640934a87344c6c9b532ef6ec4bc1995b84d989d214b1d6bf56c465e04fb161ef6fee305c379f000880507011f9ad3c53bb91e7cee1cb34868445bd6a85f87a141156563230f86f97b2eaa63c0696a72e5c99d65dbae27025352da4adbf7c33e8861d4fa899508c77e2ce3ad8f6f6a30b790948dbf5d7785afd8ff5e81908fc45aa5b69821b87f92e6c15f7c7881bcfec8f577c154113b1aeb7c2ff621f4a60f8b26915ef1afdbcc250237d1890ce1ff4356a059007cf758609e0b5161bf91338064097e2156ef80525215ad28f0bd213ee09c6282515be794e6f2ec05488c18a21c988f7042b79fa7d211ae338fffb2199ed47f9da8d1d8aeeff68650eefa99dd5af91e69013e7e8fc1ab5372accc4c8a71f0d71cd382448806165be52ff89e378cd124b9b366c974b67ee0ad801e6e3468563f31b20f3f9a60adfe8928d9af88c354b2601ce08cd7fce2f2212cf1f0e73328d43d7b8c10666a9b1d08ba92169bafdef243548fa0f6f7c3b204377a5199d8bfbe1006d5abdb0bf15856285e2a5fdbc0b0cc41a4bd9ddb2f20da0a3a1a32b93fe4585b6c2b1d4a8c2c086554b06b7d57b724414e7123a46cfe68d4069a35dca342b0aa9acb50600d7d90cb478befa2abf0d9e73ef1dbc9330ed0c4a7362ab1d7d76459560ed00d11bdd563fd98f97a6b94bce807733197c8ae85e5485a8f28fddaad93e5ce8a59dd774c8cb80962fe292cb8c54073704b320907e3e116f522ed8d95617389b497434d14ee3b236b201e36dd988ad1a56f8de0893318fa4f35a244c23df806717740145aabe6d9f18762498b8e3c9460ce235dc774f93c9ad28536af2a2279671e34733f755d022728bb99bc51f59e22ee51e8cd6a1e94adfd5eb6b91920f8f7ceb972eb55b3bbddcdf94de71eeba093a2423592c3360491cb1dbb496d8b4e3d4fe2c1c27ef8b4fa72103bac2656b488916b26dcc219697ff71c8b2c8dbdf0a06678df6c1cefcf5c146cb",
            "n" : 0,
            "scriptPubKey" : {
                "asm" : "OP_DUP OP_HASH160 e1054893e5c3df0b28a62863987c8d560e4eb1d3 OP_EQUALVERIFY OP_CHECKSIG",
                "hex" : "76a914e1054893e5c3df0b28a62863987c8d560e4eb1d388ac",
                "reqSigs" : 1,
                "type" : "pubkeyhash",
                "addresses" : [
                    "n22kfKXueySucTxjY1W3get87TdPSnJVSF"
                ]
            }
        },
        {
            "value-minimum" : 0.00000000,
            "value-maximum" : 11258999.06842623,
            "ct-exponent" : 0,
            "ct-bits" : 50,
            "serValue" : "03e8658e7e68f598a4e174b695fd08b240abad737f488968b8ade849dc0eb9c4d6fda50f40310093386f245eb10451a4365e9c88616626c307ca90f1310878e959ec33f97a20829450ff00bca8dbddbb61de44b450185c21eaf9f7fcfdbeade3cf03c27a297c923547cbbf07637978fa4994b1c192cfd455e60151763855ed607f2332e7d9389ce564dbb22e30b4cd91213e1a5eb916d5ec48568c8919bcabc7c83979754234968708c47b24bdd4c825aec3a42163d43a5e49992466c9cdc7171ef2f6608d0ce94e2a8603d7146dac35ed421f58a587707a4da9e6b76445a4c5eb8c2aa0fc72d33798b5e9c4cd6efddd5912fc74f10c37a3787ead1af2d0779dab2b1e8d95d09289ae5612a2ac0c50713b24e2c968869eb359899766f84bf5092146350b2c508bf444c285797dbb5b2cebdab2e1de9bf35864e0aeb40007343a6f4805a8894f8cdab6d1621dfe183f25bdaf6f4d205063b77a37202715f905648b0c7f571af93fb557ab5194c6361fcf00fe21f539c87fdefcb8e88b3734beaea5dad420c941a723ac0ae1f6730ad09468ec3da7bd6d716b7a80eb1b61c3e88b8b7a86a9e4fac9cc49690cc60d4025a459d5544c50c2ace365ac0e34e1572c03f7c329dce1a5ab6bb01817788cc3e0c96cf4d2df420c806a0c001d631fc7fd1d66e64dde76a605e37d1792dfcd50dbddfe1b3111cc88f6368720e2763dbb01cf6ef8cb7cb11d4c70b429bbb4d663c2568c9a4100b34df3aa07cec38055772aa327ec62da7843b8555978ee5a01078c2c2a5df0ada88f57f4f113a2e3ecde0d84574ef0d24fb6f5809d684b4a211a94bd7590b513a3dc9bd5692048b0e923c3a7ca610b3a1cc702730844edbdaa617bd357e8305aaa981b19877aea67aed1ed1136e3641bd9379987a6a215804bca60e7257c24f13f1eb1447d0ed076c9d4a81a7b399add6c9a523a96125ef7aa80c96756ca9182dcf4cf447b7ceb1430a897a3352762bf62f1143af29fdfd89c009718fc7d787af0111479f52c9ee72837e842045cecfbe78969b6779a2e17e2295651021e4e82e726c67067504ac42fd2eb5705044b58a9290bfe886247f9deb2b24896b8a8e303e56307b547f3d4c36515f65297dcce732b81fe251401beae678fb72a6e4d5580594ccb1ef2dd7a3bf40a6ef2b2ff70de8756a53a55cc3ae1aa4d04f1c62982b282d00b53961a2f502d1fce93c575a16a0745931f297db27985792891fb07bdd1fc11dfd7c04be87790340aba442eb348d209176f89090f0d018bbc878056f14a99a99cae0efef5760a20b3e54b8d92bb0c265268c0a22c86201560b4366c4d17385f5c59cec12c583426b41b39f5952eea2513b9d4bd0a73736c0ba3f0db828d806ec4a4c61098b8c7f5b190081d8630ea43b418e176a77484d861f9e600ae428a74e5a44e1ce6f363d12736f643f1f668e907d4cf0f1082219cb7a8898195a9985d4230483596d60966d4cbebacd436ce2e73664a83ad2b35b52bfdc021fec81fad29c6b266e596446f1774ca5d917884f1175e830dc730fec3b789664b9e62ea08ff140576452a822525ad3b5ab4acea9b556b818713097fe2070b07154f1dee7d7f56897c0ecb47ff32b28185a02ccfa7f17573f1d742fb9db7d3961fe066c7c3d791e05395bc151622fd65d7462eb72dea8ad5c9db9b8ded743d20588840cc0fbb994bdfa40833b606b3a159da8b76c18c3734eef0b360a284a9785c099db6d355b8541d2e7a2a8bc9b01295057f5007bb2757f311f074174dc3e589d315726f6fc905471fc205dbd1847857260a7bede5de658da7610c243db9544073bdd8992b964bf6aa8621765acffb0639977ada7b539b19e59557960f812d3fa7585b95f9864477c356b8728ecf1e44b1c35d7a418dfeeb3773fa2d614500cad0ff0ccd9e904e0b97aefc4a16f691f5accd1f7ac9657d2480a4d9dd6c5648b67e6bcb3a6371d57fbf620b446657e9883b41ee6a24cf4355e172a6461c1d568f21dbd50fddc3cb76d33bb763d00a09e3e68d8393012851ec29f38acda18b0339111d18f20946a5edc7bd68dc668930a64488e62920c5d8bfbd3296d4e91da36950e2954315567a772527ed154dde863e230ca4f57957fde3c91354df6f46acadfc0d9b473321c3d5c3d7288f8cac805bf59f9b89b2b766de5c0ae0647a3d12aa59026a4dd89c0a85c8677af8fd1b9ee1bb4426bb73fdf8acc747d7dd47f87b402b97f410e675cf383ec92a65eb00b64a02b6000bf41fe0edf7de5419c79eafc02d20916c52286e24d304625bcbd98c771202f20daca36d4ba6539470c3d3e4ffe7ef05589e7dac5b8e49b6f4bd4f4ca8ad1595775a03be79b562a4bfa537ebcef5ab098ffe55b89568464a54c797af00160c424f758a344dad1db2adf0d77ad3d064d4c9f3f936d5f5234f6968a3f0da6492122aa98186c53c7b124b362c6e3463e07ba0311f771bfdb67b26f68ece8358741791e50e96fdc539e9c8938925190a1a46a0fd1507da8bd6508c924b31c8848d330c55766cd576d04478cbafc580bed2e90b5139a7b11784e6795d8e5b33d118776af5423116e65cb19d5794d0f19baf38707571bde97263a85888097a990ff968903575a13f04405fa9a32339a83eea1ede6ed96c80c90fd5fb6b9dc8839a492997d22a85bf006f515deb78dbf0438d4ade16e2276e34c7d7de51daccaa544a12f5ca0a0e3e852d11501f8cbce76257e4f5ad9a60732988b957f504c49f58d77b6b868cddd6561b361f8ab67fe4ecc2289bd774df1458ce0ea6bbd7a62416f8798c74d897202ce41dee4b40d6371d963b32ea011374e95fa57399ef2614fd60cd5c908ca11d90de96ef975c4e258736fb0e38219b180be5fddf51c306f19358ce485ec0d4826249cae96c22c7ce1ac0873a669779e632450032c74b9b055a47ba3cd902dba30439f8abd67351f14ffef3927b4e1a1886b95ba342bf279b378e87bf63495a116c13e8b99760cdc01d0e4c1e3ec49f241ac41c254aea4cff923ba73332f2aebe62ed1fed726a4c8d18395c942e41d90bdbcbd546c89058287bb0aefbc65db616b6f515b2f322ecf8998040ee1ccfd0f2c7901946ed9b6ccbc7a947301e54d4b38b70456455b937e03d6692976bfad2ce17d73d3ad233f05451e614213c2f594306a38061a82d6f1ce81950007276868267c28d4697011d0002d2a1d721e1768ead5cafddd83b4b2fac7dcd6d8c8881c5c7a9a17a15c70e3f439f8dad64a339419d8409dfc5e6c3ef210638c4be5b464c6540c33aaebca7f5d093a9a91bf6d4eee5d92b9b130897d079f21ed40022339724ab930abafb3005fcb939ac4118defd042abdd7dd7565b6f2d1ce330b8c8b727521d6665434d00787db6c9f7a3b9bc8bd994127330bfde192753a886f613a6a2bfa537bf681e3d93bb7e265f92e647560ce7ccaf4a5df0bc7ff35eaff61a489de9e1270b4a46bdcbde80c90fbfe5870e08a181c3d2d6285543b5ef373812ad750e04200143100c4fd7e54e4e3049615c3418b35be0b742a985981f4ec5c2c03588903d5432b3617bd32c45885d4e751630626bc5b362f06da899709165a80d82c3023a1ccd9f36dfe4e5d3c000cff2f8e95983172a97d41effea1dc4ff82d536913e5c279763d3b97802c921dbdfd2d4b5d9ddc29e9a450df86b2dcecf4f8b6b3eb68a685ed9aeed75bb18bcb2c79d4285d6c4bd70624ab339e9dec35dddf3011957b25ca8a4070641e121b8356fb4622a5c9eacf1994d5b546553e87c7d7605423868d65c5cea9f8f2bec3e0c6e988537adbe7246ba0ba42a86abc5c37d751c76ae14b1c2146079a1b10e1c41e4b049fc5bfc4fdd56f23b92418f5d6fa9e0333e4315cd2455ff3bb526835c9b4a69282487cd56942c91daaa1f496bdd765cb41755220147ca699e4384f25a1a5eb7236c87bcb59e2d542097fb93151224837f60ea321110e33b1f5e2e63d9249cb5b504cdecf6208669beaac31f57e464f582862aa15b6753772ec4b085c99c96df90271fa5f3fde9f71ab8ef1364121f48aaf2acaf529261691782637f61283d0e1f58ffc9c6010b27952d405eac417818a1b20f6c00d401a7a7d9a6171032f949d9db7d36e67a2229d8676facb8d026536fdb34816cde70de30bc8a8cb90cd47fc55692bfb3a20de0183542a299ef055e1179ed9b5ffc42ff3f87b29053e51f47dba1c5fe903358466a77837612d35ba6071ce1ebe5957fed93ab6f49504094eb5eb38b8fa3e5541747c33c4cf1cf495dafa1a48b10fa504eb045898eb824143a0f3e03bf89c6e8fd825e429e3c489cebc6ebe81870888652e29451eb1b85942a3cfd2f74e84121016dbcedba292479e5f42f9bf463058b8b4102d973f5827f3068b7e9cb6fa83e8ffbc6f0409dd0c53f381c81ead850286c3ad85417c4baf033a99947523f60059572eff0c6f0d37ab4d2078451c6d9462c274316294317bc5d293ce67eb2ac058c78bf8991b6584bf2ef4edc0cf39bc797417307ccbc6a97600ed218b84fab0d8c5def5902f2f05095b65c0bdb4fb4d355bf5f5c8bc338d36fd3e2db8cc49d18e1e804cd749c44804d741954cf81ae01b3cd891234e8ec8b07f90ddfbf9fde54bbf7e7ef9b7ca6713ab4a97f63b1e8c17a373eec6be961cb4688276b0b9bdaf61a51bbbb75bc35320228131d31425fc827a68ebc8b986c8f8bab86abbccc596f1516ed2ba750eeb400e4a35196fd684fe78d494b1809d6ce2ae46ed6ed7401d0046cc113422bd70a77f5c8d194c9a8a36ed3ab4e08b528ec9543a70f813f6dff44c3fd6b2e5a4b0e58694ec80742dc239f3667b89f08d83320e1386512e5df801efbeecab9709902b43a8caf2dd0c8a6201396647358eb16f9904fe67f6cbf06ae531bbe951f67e4e0a689209109692e0b0314b9a6edb8cd750f36fef1fa8eed9910775a679d7e08ff03f8ec93db943572847be79ecbf5ec84865dbdb9652a06162d4bc53ec183a78bce9290ef37487b8e00c07ce5bebb051e9167d27c486d41e5366519517bdc028ce07c59431e29386b9507ea911337a6498e774250e6adf39f3d76d2d2669ba429aeb7d0215dec6da39ec79e1fffabaece912932fdc1f96f21d80a325c7820da366b785236b204231d558d420960148f25c364001cb66dbf8d6d470f1c8e3a24dfca86e9009d63c69a31d9d8d49dfee658ef303c866fc19a88ac6f6f86aa4e69c06f38c4fb3ce499967aa9fca13894f4439b5c81c7c308e6020bcc480d3720f2aa92d10c062a15785d8461779d2c713ee8cf64c49f775c65b73be35fc88b12aed57df83cbdb069a99c9106d67b8cc48e799004b7b49119e6800f3b7561e608dcd42ef7f4762404fb94c74362816b0d8239f90f8ee4ce3043b6fd38e222513c5469eb95c037f1b9e40352063043799845a937f5e485ec7940538993d4161ea0c66fc094b8354b98309217c28af5c9cf44b39b00e7ff640471e66cfbb087f832c13912c28e9447f532d11e2e285484801d656e003544a750fdfd1b884508fde5e3daeffa850a8a407bd23fd9a1561b3ac6eee725254e336ef71a31f8ec14fedfe85e874d34bbdedd9e53367858a43c286e1cb410fba34864fcbe713e0943e4c52de4088e6ffa59a98576f5065028935418d68494f4ca3766bb4b025aa10bfe710886b19ee2b12721296b5b9da292511ff21039e3df2cda4d6beac2f3e4e71d01c7677e0f3fdb1cb08d58f0530ce6e1d90f77d",
            "n" : 1,
            "scriptPubKey" : {
                "asm" : "OP_DUP OP_HASH160 d6257982e9156b11220c18c07bad1c0730ab5be3 OP_EQUALVERIFY OP_CHECKSIG",
                "hex" : "76a914d6257982e9156b11220c18c07bad1c0730ab5be388ac",
                "reqSigs" : 1,
                "type" : "pubkeyhash",
                "addresses" : [
                    "n13FntbJQozeFaomD7ihwhiT7Z8NG4BPqr"
                ]
            }
        }
    ],
    "blockhash" : "f1177bfb7f3e9df726b060a54d6af9b01a60c70cf814259d199debd68b0a26f2",
    "confirmations" : 84,
    "time" : 1441624850,
    "blocktime" : 1441624850
}
